:100000000C94D5060C941C070C941C070C941C072C
:100010000C941C070C941C070C941C070C941C07D4
:100020000C941C070C941C070C9458150C94801A03
:100030000C942E2E0C941C070C941C070C941C077B
:100040000C941C070C941C070C941C070C941C07A4
:100050000C941C070C942F160C941C070C941C0772
:100060000C941C070C941C070C941C070C941C0784
:100070000C941C070C941C070C941C070C941C0774
:100080000C941C070C941C070C941C070C941C0764
:100090000C941C070C941C070C941C070C941C0754
:1000A0000C941C070C941C070C941C0705010902F6
:1000B000A10185020901A1000509190129081500FE
:1000C0002501950875018102050109300931158165
:1000D000257F95027508810609381581257F9501D0
:1000E00075088106050C0A38021581257F95017572
:1000F000088106C0C005010980A101850319012AF4
:10010000B700150126B700950175108100C0050CD8
:100110000901A101850419012AA002150126A002E6
:10012000950175108100C005010906A1018505052D
:100130000719E029E71500250195087501810205D9
:1001400007190029EF1500250195F07501810205B9
:10015000081901290595057501910295017503910D
:1001600001C00660FF0961A1010962150026FF00B8
:100170009520750881020963150026FF00952075FA
:10018000089102C005010906A101050719E029E748
:1001900015002501950875018102950175088101F9
:1001A0000507190029FF150026FF0095067508812F
:1001B000000508190129059505750191029501753C
:1001C000039101C0000101010101010101010202CD
:1001D00002020202020202030303030303030304F5
:1001E00004040404040405050505050606060606C0
:1001F000070707070708080808090909090A0A0A7A
:100200000B0B0B0C0C0C0D0D0D0E0E0E0F0F0F101B
:1002100010111111121213131414151516161717A5
:10022000181819191A1A1B1B1C1D1D1E1E1F202011
:10023000212222232424252626272829292A2B2C5B
:100240002D2D2E2F30313232333435363738393A7E
:100250003B3C3D3E3F404142434445464748494A76
:100260004C4D4E4F50515354555658595A5B5D5E44
:100270005F616264656668696B6C6D6F70727375DF
:1002800077787A7B7D7E8082838587888A8C8E8F43
:1002900091939596989A9C9EA0A2A3A5A7A9ABAD71
:1002A000AFB1B3B5B7BABCBEC0C2C4C6C9CBCDCF5F
:1002B000D1D4D6D8DBDDDFE2E4E7E9EBEEF0F3F50D
:1002C000F8FAFDFFFFAA7F55402223252628292A78
:1002D0002C2D2F3032333536383A3B3D3E404243A9
:1002E0004547494A4C4E5051535557595A5C5E60E8
:1002F00062646668696B6D6F71737577797B7D7FFA
:1003000081838587898A8C8E90929496989A9C9EF8
:100310009FA1A3A5A7A8AAACAEAFB1B3B4B6B8B914
:10032000BBBCBEBFC1C2C3C5C6C7C9CACBCCCDCE7C
:10033000D0D1D2D2D3D4D5D6D7D7D8D9D9DADADB5F
:10034000DBDBDCDCDCDCDCDDDDDDDDDCDCDCDCDCEB
:10035000DBDBDBDADAD9D9D8D7D7D6D5D4D3D2D22A
:10036000D1D0CECDCCCBCAC9C7C6C5C3C2C1BFBE12
:10037000BCBBB9B8B6B4B3B1AFAEACAAA8A7A5A37D
:10038000A19F9E9C9A98969492908E8C8A8987853C
:1003900083817F7D7B79777573716F6D6B6968661B
:1003A0006462605E5C5A5957555351504E4C4A49ED
:1003B00047454342403E3D3B3A3836353332302F95
:1003C0002D2C2A29282625232229003A003B003CEF
:1003D000003D003E003F0040004100420043004419
:1003E000004500000046004700480035001E001F81
:1003F00000200021002200230024002500260027E1
:10040000002D002E002A0049004A004B002B00144A
:10041000001A000800150017001C0018000C00123C
:100420000013002F00300031004C004D004E003909
:100430000004001600070009000A000B000D000E62
:10044000000F00330034000000280000000000000E
:1004500000E10031001D001B00060019000500111D
:10046000001000360037003800E500E500000052BB
:10047000000000E000E300E200000000002C0000AB
:1004800000000000000000E60001517600E400508A
:100490000051004F00A600D55C680069006A006B3F
:1004A00000B900B8000000000000000000DE5C00A1
:1004B000000000AA00A900000000000000000000E9
:1004C000000000000000000000000000000000002C
:1004D000000000C55CC75CCB5C00000000000000B1
:1004E000000000000000000000000000000000000C
:1004F0000000000000C65CC85CCC5C00000000008E
:1005000000000000000000000000000000000000EB
:100510000000000000C25C000000000000000000BD
:10052000000000B200000000000000000000000019
:100530000000000000000000000000C95C00000096
:1005400000000000000000000000000000000000AB
:100550000000000000000000000000C45CCA5CC392
:100560005CA600680069006A006B00B900B8000072
:10057000000000000000000000000000000000AAD1
:1005800000A90000000000000000000000000000C2
:10059000000000000000000000000000000000C596
:1005A0005CC75CCB5C0000000000000000000000A5
:1005B000000000000000000000000000000000003B
:1005C00000C65CC85CCC5C000000000000000000BD
:1005D000000000000000000000000000000000001B
:1005E00000C25C000000000000000000000000B23B
:1005F00000000000000000000000000000000000FB
:1006000000000000000000C95C00000000000000C5
:1006100000000000000000000000000000000000DA
:1006200000000000000000C45CCA5CC35CA6006857
:100630000069006A006B00B900B80000000000000B
:100640000000000000000000000000AA00A9000057
:10065000000000000000000000000000000000009A
:100660000000000000000000000000C55CC75CCB7B
:100670005C0000000000000000000000000000001E
:1006800000000000000000000000000000C65CC880
:100690005CCC5C00000000000000000000000000D6
:1006A00000000000000000000000000000C25C002C
:1006B0000000000000000000000000B20000000088
:1006C000000000000000000000000000000000002A
:1006D000000000C95C0000000000000000000000F5
:1006E000000000000000000000000000000000000A
:1006F000000000C45CCA5CC35C00AF0000000000E6
:1007000000000000000000000000000000000000E9
:100710000000000000000000000000000000007E5B
:100720000F00D4FFFFFFC7000000780000000000AA
:100730000000002A2B28000000000000000000003C
:1007400000000000000029000000002C1E342021C1
:100750002224342627252E362D3738271E1F202108
:1007600022232425263333362E37381F0405060767
:1007700008090A0B0C0D0E0F101112131415161781
:1007800018191A1B1C1D2F3130232D35040506079F
:1007900008090A0B0C0D0E0F101112131415161761
:1007A00018191A1B1C1D2F3130354C00DA0281FF3D
:1007B000D9F1DB20A4A62EAF00A0C000A1C800AED6
:1007C000D580A81FD300408D1420001E0F05000403
:1007D0007F3F1F643214643214783C1E1E140A05D5
:1007E00000AE09025B00030100A0FA090400000149
:1007F00003010100092111010001224000070581C8
:100800000308000A09040100020300000009211185
:1008100001000122220007058203200001070503D1
:100820000320000109040200010300000009211156
:1008300001000122B6000705840320000A120110FE
:100840000100000008070007000100010200010A82
:10085000034700470038003600000008034E0045FB
:10086000004F000000040309040000000000003EE7
:100870005B4F5B3E003E6B4F6B3E001C3E7C3E1C64
:1008800000183C7E3C18001C577D571C001C5E7FE6
:100890005E1C0000183C180000FFE7C3E7FF0000E3
:1008A0001824180000FFE7DBE7FF0030483A060E87
:1008B00000262979292600407F05050700407F058D
:1008C000253F005A3CE73C5A007F3E1C1C080008AC
:1008D0001C1C3E7F0014227F2214005F5F005F5FBC
:1008E0000006097F017F00006689956A00606060EC
:1008F00060600094A2FFA2940008047E0408001027
:10090000207E20100008082A1C0800081C2A08085D
:10091000001E10101010000C1E0C1E0C0030383E73
:10092000383000060E3E0E060000000000000000F9
:10093000005F000000000700070000147F147F1410
:1009400000242A7F2A1200231308646200364956C5
:10095000205000000807030000001C224100000096
:1009600041221C00002A1C7F1C2A0008083E08089F
:1009700000008070300000080808080800000060CF
:100980006000002010080402003E5149453E00006E
:10099000427F4000007249494946002141494D3398
:1009A000001814127F10002745454539003C4A497C
:1009B00049310041211109070036494949360046AD
:1009C0004949291E000000140000000040340000C6
:1009D00000000814224100141414141400004122D1
:1009E0001408000201590906003E415D594E007C81
:1009F0001211127C007F49494936003E4141412293
:100A0000007F4141413E007F49494941007F09093A
:100A10000901003E41415173007F0808087F000032
:100A2000417F4100002040413F01007F08142241E6
:100A3000007F40404040007F021C027F007F04088E
:100A4000107F003E4141413E007F09090906003EFA
:100A50004151215E007F0919294600264949493242
:100A60000003017F0103003F4040403F001F204042
:100A7000201F003F4038403F006314081463000308
:100A800004780403006159494D4300007F4141410E
:100A900000020408102000004141417F00040201CF
:100AA00002040040404040400000030708000020CE
:100AB00054547840007F2844443800384444442843
:100AC00000384444287F0038545454180000087EED
:100AD0000902001824241C78007F08040478000010
:100AE000447D4000002040403D00007F102844002D
:100AF0000000417F4000007C04780478007C0804FA
:100B00000478003844444438007C18242418001821
:100B10002424187C007C08040408004854545424FD
:100B20000004043F4424003C4040207C001C204042
:100B3000201C003C4030403C004428102844004C1D
:100B40009090907C004464544C440000083641006E
:100B5000000000770000000041360800000201029A
:100B60000402003C2623263C000000000000808098
:100B70008080000000000080E070180C1830E080D9
:100B8000000010F8901030783010B8FC38100000D9
:100B900000000000F8FCF800000000000000000069
:100BA000000000001C9C1C00000000F8FCF8000085
:100BB000000000001CFCF8C000000000000080E005
:100BC000F87C1C000000F0FCFCFC1C1C1C1C1C1C09
:100BD0001C1C000000000000C0F0F8381C1C1C1C8D
:100BE0001C1C3CF8F0E000E0F0F0F0E0ECEEF7F375
:100BF0007020007C7C7C7E007E7E7E7F7F7F00007C
:100C000080C0E07E5B4F5BFEC00000C000DCD7DE32
:100C1000DEDED7DC00C000000000000000000000A5
:100C200000000000000000000000000000000FBCF9
:100C3000E0818181838382870C183060C000001FAF
:100C4000FE90B9FFBB91983C1811133F11000000B2
:100C500000000000FFFFFF00000000000000000097
:100C600000000000FFFFFF00000000FFFFFF00008A
:100C7000000000000000030F7FF8E080F0FC3F0F51
:100C80000100000000003F3F3F1C1C1C1C1C3C7866
:100C9000F8F0E08000000000C3E7FF7E3C38787881
:100CA0007070F8FFDF87000F1F3F7F7F7F7F7F3FE0
:100CB0001E0C001F1F1F3F003F3F3F7F7F7F003004
:100CC0007B7F7830202030787F3B0003000F7F0F40
:100CD0000F0F7F0F00030000000000000000000065
:100CE000000000000000000000183C24666341C1C1
:100CF0008180808080808081C14162386C4CC68157
:100D000081808080808081C14362361C1800000091
:100D100000000000FFFFFFC0C0C0C0C0C0C0C0C016
:100D2000800000007FFF7F000000007FFFFFC08089
:100D3000000000E0E0C0C0C0E0F97F1F0700000035
:100D400000000000000070F0E0E0C0C0C0C0E0F0B3
:100D5000F87F3F0F0000000F3F7FF9E0E0C0C0C008
:100D6000C0C0E0F97F3F1F0000000000000000004D
:100D70000000000000000000000000000000000073
:100D80000000000000000000000000000000000063
:100D90000000000000000000000000000000000053
:100DA0000000000000000000000011241FBECFEF73
:100DB000DAE0DEBFCDBF04B603FE27C08091B209E2
:100DC0009091B309A091B409B091B5098730904BC7
:100DD000A740B04BD1F41092B2091092B30910920F
:100DE000B4091092B50914BE84B7877F84BF0FB6CB
:100DF000F894A895809160008861809360001092BB
:100E000060000FBEE0E0F8E3099529E0A8E8B2E051
:100E100001C01D92A23BB207E1F712E0A0E0B1E0F1
:100E2000E0EEF7E602C005900D92A838B107D9F7B9
:100E30000E948C260C94A3330C940000E8EDF0E0A3
:100E400080818E7F80831092E2001092DA001092EF
:100E5000E100A0EEB0E08C9181608C9380818F776F
:100E6000808319BCA7EDB0E08C918E7F8C9380813C
:100E70008F7E80831092710708952091E400309155
:100E8000E50095E6A9012091EC00822F817020FFFA
:100E900006C08091E80080FF06C080E008952091A0
:100EA000E80022FD1AC080919607882389F08530DA
:100EB00089F08091EB0085FD0FC02091E400309116
:100EC000E50042175307F9F29150E1F684E00895E6
:100ED00082E0089583E0089581E00895EF92FF9203
:100EE0000F931F93CF937C018B010E943D07C82F66
:100EF000811117C08091E80085FD0BC08091E8004A
:100F00008E778093E8000E943D07882399F3C82FCD
:100F100008C0F70181917F018093F1000150110910
:100F200049F78C2FCF911F910F91FF90EF9008956B
:100F30008091980787FF13C08091E80082FF06C068
:100F40008091E8008B778093E80004C08091960739
:100F50008111F2CF0895809196078823D9F380916B
:100F6000E80080FFF8CF8091E8008E77ECCF982FD3
:100F70009093E900242F762F50E0891731F070917B
:100F8000EC002091ED005091F00021FD07C09F5F23
:100F9000973071F78093E90081E008953091EB007C
:100FA0003E7F3093EB003091ED003D7F3093ED00BC
:100FB0003091EB0031603093EB007093EC002093A4
:100FC000ED005093F0002091EE0027FDE0CF80E08F
:100FD0000895CF92DF92EF92FF920F931F93CF93DA
:100FE000DF93C8EDD0E088818F7E8883E7EDF0E065
:100FF00080818160808384E082BF81E0809371077B
:1010000088818E7F888302EE10E0F80110821092B2
:10101000DA0081EEC82ED12CF601108288818F77FC
:10102000888388818068888388818F7D888319BCC4
:1010300010929607109297071092950710929407B6
:1010400090EEE92EF12CF70180818B7F80838881DF
:101050008160888342E060E080E00E94B707F6018B
:1010600080818E7F8083F801808181608083808190
:1010700088608083F70180818E7F80838881806192
:101080008883DF91CF911F910F91FF90EF90DF90B8
:10109000CF900895FC0180919E0790919F0786173D
:1010A0009707A0F06115710529F49091E8009E77EB
:1010B0009093E80090E06115710551F4911108C01A
:1010C0008091E80082FF34C080E00895BC01F2CF37
:1010D000809196078823C1F18530C1F18091E800A5
:1010E00083FD30C08091E80082FDEACF8091E80066
:1010F00080FFE1CF8091F3002091F200382F61153D
:10110000710519F02830310558F091E0283031058B
:1011100009F090E02091E8002E772093E800CBCFF3
:1011200081918093F100615071092F5F3F4FE7CFAC
:1011300080919607882341F0853041F08091E80046
:1011400083FFBECF81E0089582E0089583E0089593
:10115000089580E008958091730708959C014FB72A
:10116000F89480917E0690917F06A0918006B091C0
:1011700081064FBF821B930B08952FB7F89460919F
:101180007E0670917F0680918006909181062FBF28
:1011900008958091790681111092790608958091C1
:1011A000780690917706892B90917606892B80930B
:1011B0008A02909179069923A1F0892B80938A0263
:1011C00080912301882341F180919B0687FF24C0F1
:1011D0008EE1ECE8F2E090E0815000F591110E9480
:1011E000C908E0919D06F0919E063097E1F080914C
:1011F0002301882359F080919B0687FF07C08091C7
:101200008A0280938B0285E080938A020280F381B8
:10121000E02D8AE892E0099486E0DBCF2191222339
:10122000D9F29F5FD9CF0895909123019923D1F0EE
:1012300090919B0697FF16C0E82FE695E695E695F8
:10124000EE31E0F4F0E0E657FD4F282F277081E003
:1012500090E001C0880F2A95EAF780959281892352
:1012600082830895ECE8F2E09191891303C0DF01D5
:1012700011971C9292E0E239F907B1F70895909125
:1012800023019923C1F090919B0697FF14C0E82F8A
:10129000E695E695E695EE31F8F4F0E0E657FD4F79
:1012A000877021E030E001C0220F8A95EAF7828141
:1012B000822B82830895ACE8B2E0EFEF90E02D91AD
:1012C000821751F0EF3F19F4211101C0E92F9F5F00
:1012D0009630A9F7EF3F09F408950E2E000CFF0B8E
:1012E000E657FD4FE6CF21E1929F800D1124982F04
:1012F000977086958695869525E0829FF00111244A
:10130000EC5CF94F50E040E080E0219130E0092EA4
:1013100002C0369527950A94E2F721703327042EF0
:1013200001C0220F0A94EAF7822B4F5F5F4F4530CE
:10133000510559F7089521E1929F800D1124982FAE
:10134000977041E001C0440F9A95EAF7869586951B
:10135000869595E0899FF0011124EC5CF94F90E0AF
:1013600080E070E05191DF0111979B01082E02C0CF
:10137000369527950A94E2F7217021952527242395
:1013800025272C9301968530910561F7089580916A
:10139000330690910206981301C008958F5F8770FD
:1013A000FACF882341F08095909178068923809325
:1013B00078060C94CF080895882339F09091780628
:1013C000982B909378060C94CF0808952091DA0515
:1013D0003091DB052817390771F09093DB05809376
:1013E000DA05E0919D06F0919E06309721F0008489
:1013F000F185E02D099408952091D8053091D90503
:101400002817390771F09093D9058093D805E0919A
:101410009D06F0919E06309721F00680F781E02D21
:1014200009940895E0919D06F0919E06309721F071
:101430000190F081E02D099480E00895FA01811176
:1014400001C0FB01099480915407982F9E7F29F4D5
:10145000817082608093540708958635E8F3817027
:101460008465F8CFAF92BF92DF92EF92FF920F9315
:101470001F93CF93DF93082F162FE901E42FF0E09D
:10148000EC53FE4F611110C0E4915E2F4E2F498343
:10149000E8835A83DF91CF911F910F91FF90EF90D6
:1014A000DF90BF90AF900895E62EF12C4491D42E9A
:1014B000E42FF0E026E0829FC00111242FEF30E0FE
:1014C000B9010E94582F802F90E0880F991F55E591
:1014D000569FD001579FB00D11248A1B9B0B982F4C
:1014E000990F890F5901AE18BF08AE9ED001AF9E6B
:1014F000B00DBE9EB00D11245B2F189F80011124EA
:10150000012F11275901A01AB10AAE9E8001AF9E8A
:10151000100DBE9E100D11245901A81AB108AE9CE1
:10152000C001AF9C900DBE9C900D1124892F99276E
:10153000281B390B2E9FC0012F9F900D3E9F900DB1
:101540001124E92F62307105A1F050F46115710585
:1015500009F49DCF6130710581F0EB2F512F97CFAA
:101560006430710569F080F06630710509F48FCF41
:10157000F4CFE42F4B2F592F8ACFE42F412F87CF61
:10158000EB2F542F492F83CF4B2F5D2DE12F7FCF92
:1015900040913307803F59F48091340787FF0DC095
:1015A0001092340741110BC010922E0708C0813FE2
:1015B00081F48091340718169CF3442381F08091C4
:1015C000350790913607892B09F05AC010922B07E6
:1015D0000895823F49F447FFF0CF1092330780917E
:1015E00034078111ECCFE0CF833F19F41416ACF32C
:1015F000E4CF90913507893F29F41916F4F610923B
:101600003507DBCF8A3F19F497FFD7CFF8CF9091FA
:1016100036078B3F29F497FFD0CF10923607CDCFF6
:101620008C3F19F41916CCF3C8CF9CE0980F953075
:1016300090F4845F990B21E030E0B90102C0660F9D
:10164000771F8A95E2F7CB01809590913207892325
:1016500080933207B2CF8D3F31F48091FB058E7FAE
:101660008093FB05AACF8E3F21F48091FB058D7FEF
:10167000F7CF8F3F09F0A1CF8091FB058B7FF0CF93
:1016800008958091FB0580FD16C081FD16C082FD86
:1016900016C080912B078823A1F0883280F428E0BF
:1016A000829FC001112468E270E00E946C2F862F97
:1016B000672B39F0089582E0089584E0089588E06A
:1016C000089581E008958091FB0580FD14C081FD9F
:1016D00014C082FD16C080912E07882381F08431CA
:1016E00080F422E3829FC001112464E170E00E9433
:1016F0006C2F862F08958CE0089589E1089585E088
:10170000089582E30895803F31F40E94630B819530
:10171000809334070895813F19F40E94630BF8CF3A
:10172000823F31F40E94630B8195809333070895C3
:10173000833F19F40E94630BF8CF893F29F40E947C
:10174000410B8093350708958A3F21F40E94410B95
:101750008195F7CF8B3F31F40E94410B81958093A7
:10176000360708958C3F19F40E94410BF8CF9CE096
:10177000980F953070F4845F990B21E030E001C040
:10178000220F8A95EAF780913207822B80933207E5
:1017900008958D3F31F48091FB0581608093FB05B6
:1017A00008958E3F21F48091FB058260F7CF8F3F33
:1017B000B9F78091FB058460F1CFF894E82FE295AA
:1017C000EF70F0E031A1282F2F7081E090E001C090
:1017D000880F2A95EAF7982F9095932391A392A1C9
:1017E000892B82A37894089590919B0692FF06C05E
:1017F000282F28712830F9F4877F846093FF06C072
:10180000282F28712831F1F4877E846120919C066D
:1018100020FF06C0382F38713830D9F4877F8160B7
:1018200021FF06C0282F28712831D1F4877E8161DD
:1018300094FD877E0895282F24712430F9F68B7F3C
:101840008860DCCF282F2471243101F78B7E8861DA
:10185000DDCF382F3171313019F78E7F8860E0CFBE
:10186000282F2171213121F78E7E8861E1CFCF931E
:10187000DF93682F81E06A3019F06D3029F480E041
:10188000DF91CF910C94B80C8091B0099091B1097F
:1018900026E0FC01AAEAB9E001900D922A95E1F751
:1018A000603E08F45AC026E0FC0111922A95E9F73F
:1018B000C091B009D091B10946E050E0BE018AEA7A
:1018C00099E00E9445309E012A5A3740892B41F108
:1018D000C90145E0969587954A95E1F741E050E0CA
:1018E000BA0102C0660F771F8A95E2F7CB016091BB
:1018F000A8077091A907862B972BB9016B5F7F4FC3
:10190000E5E076956795EA95E1F702C0440F551F2B
:101910006A95E2F7842B952B9093A9078093A807EB
:101920002A5F3F4F4091A707642F70E0C9010E94D2
:10193000582F481B463010F4240F311D211572E03A
:10194000370710F030E020E02655384F3093B109CA
:101950002093B009DF91CF910895F6E06F9FB00119
:1019600011246759774F46E050E00E942F30A0CFF6
:10197000CF93382FE091B009F091B109EA5AF740BE
:101980002091A707622F70E0CF010E94582F281BDB
:10199000822F332361F066E00E943E2FC82FC15092
:1019A00010F4CF91089580E20E94370CF8CF9F0188
:1019B000280F311D2115324018F080E0F0E0E0E002
:1019C0008E0F9F2F911D8655984F9093B10980934C
:1019D000B009E7CF0F931F93CF93DF93EC01FC0186
:1019E00001900020E9F78F0101501109C017D107BC
:1019F00028F0DF91CF911F910F91089589910E9456
:101A0000370CF4CFCF92DF92EF92FF920F931F9398
:101A1000CF93DF936C017B0164E670E088E70E945E
:101A20005B2EEC0197FD12C010E000E0F601E00F24
:101A3000F11F849164E670E00E94B72EEC01892BBF
:101A400029F40F5F1F4F0E151F0581F70E943A2FD3
:101A5000CE01DF91CF911F910F91FF90EF90DF901A
:101A6000CF900895CF93C091290780912A078823AA
:101A7000D1F00E94BD086054784D864F9F4F60930F
:101A80002507709326078093270790932807C11195
:101A900008C062E070E089EF96E00E94020D892B99
:101AA00029F0C09129078C2FCF91089581E0809370
:101AB0002907F7CFCF9384E090E00E94F832C82F37
:101AC00081E290E00E94F832982F8C2FCF910895F8
:101AD0000F931F93CF93DF93C42FD0E0CC0FDD1F64
:101AE00022E2629FC00DD11D11243CEC839FC00DEA
:101AF000D11D1124CE0186960E94F832082F10E0E5
:101B0000102F0027CE0187960E94F8329801282BCB
:101B1000C901DF91CF911F910F910895462F843015
:101B200038F4763028F4613118F4672F0C94680D7E
:101B300090E080E00895CF93DF930E948E0DEC013A
:101B400082389105A9F1D8F58133910509F496C041
:101B500048F58932910509F48AC08A9709F495C03D
:101B6000C11521E5D20708F0BCC0C11530E5D30787
:101B700008F014C1C83ED10508F09CC0C03ED10594
:101B800060F5C83AD10508F087C0C53AD10508F01C
:101B9000FDC0C130D10509F12097F9F0C430D1055D
:101BA000E0F440C08533910509F45AC0C997C1F6E5
:101BB00080919B06837089F0C0EED0E00EC0833E1A
:101BC000910599F170F4803E910501F1823E9105F5
:101BD00039F680919B0682FD21C0CE01DF91CF9125
:101BE0000895863E910561F1873E910571F1843E2D
:101BF000910509F0B5CF80919C0681FFEECF8091D1
:101C00009B06C7EED0E084FD0DC0E7CF80919B0618
:101C100080FD12C190919C0690FFDFCFC3EED0E013
:101C200084FFDBCFD0E0C0E0D8CF80919B0682FD5F
:101C300006C190919C0690FDBFCF84FFCECFF2CF1E
:101C400080919B0683FDDDCFC8CF80919B0683FDED
:101C5000F9C090919C0691FFF0CFC4EED0E0BDCFCB
:101C600080919B0685FFB9CFC9E2D0E0B6CF8091C5
:101C70009B0685FFB2CFC5E3D0E0AFCF80919B0636
:101C800086FFABCFCAE2D0E0A8CF80919B0686FF4B
:101C9000A4CFC1E3D0E0A1CFCF3BD10518F6C85AFD
:101CA000D0E0CC0FDD1FC45DDD4F0990D881C02D81
:101CB000D46493CFC11540E2D40758F4C11581E034
:101CC000D80708F08ACFC03FD10508F4ABCFD06564
:101CD00084CFC11590E4D90708F4A4CFDF70D06A8F
:101CE0007CCFC11525E5D20700F5C11534E5D30732
:101CF00008F08AC0C11543E5D40708F071C0C115CA
:101D000082E5D80708F467C0CE018370992721E0E7
:101D100030E002C0220F331F8A95E2F7C695C695C0
:101D200080E2C89FE001112452C0C11599E5D9078E
:101D3000A8F4C11528E5D20708F06BC0C11536E537
:101D4000D30708F06FCF8C2F0E94F40BC82FD0E080
:101D5000DC2FCC27CC27DF71D0623FCFC1154AE5FD
:101D6000D40708F45BC0CE0190568115904208F06C
:101D700059CF8D2F8F710E94F40B90E0982F8827F8
:101D800088279F719C012C2BE901E6CFC55AD0E032
:101D9000C75DDD4FC881D0E0D0641FCFCE01E4E045
:101DA00096958795EA95E1F783702C2F26952695D1
:101DB000237040E2249F90011124382B8C2F8370D4
:101DC000C1E0D0E002C0CC0FDD1F8A95E2F7C22B44
:101DD000D32BDC6802CFDC2FCC27C16FD06AFDCEBD
:101DE000CE018370992721E030E002C0220F331F1B
:101DF0008A95E2F7C695C69590E2C99FE001112445
:101E0000C22BD32BDA68E9CEDC2FCC27C46FD06A83
:101E1000E4CEDC2FCC27C06FD06ADFCE8C2F8F7042
:101E20000E94F40B34E0D695C7953A95E1F7CF7050
:101E30009C2FEC01D069D1CEC9E3D0E0CECEC2EE6A
:101E4000D0E0CBCEC6EED0E0C8CEBF92CF92DF922C
:101E5000EF92FF920F931F93CF93DF938C01C0906B
:101E6000A307D090A407E090A507F090A607809163
:101E70007A0690917B06A0917C06B0917D06C82AD7
:101E8000D92AEA2AFB2ACFE1D0E0BC2ED701C6012D
:101E90000C2E04C0B695A795979587950A94D2F70E
:101EA00080FD0EC0219788F7B12C8B2DDF91CF914B
:101EB0001F910F91FF90EF90DF90CF90BF9008950A
:101EC000B8018C2F0E949B0D019761F3EECFCF9349
:101ED000DF93EC010E94250FBE01DF91CF910C949E
:101EE0009B0D0E94670F292F2F7092959F70925023
:101EF0009E3078F4E92FF0E0EB55FC4C0C94802FE9
:101F0000803F19F020F4883E20F481E00895843F5A
:101F1000E1F380E00895883EC0F3813FD1F7F5CF2B
:101F2000822F86958695869508956F927F928F92DF
:101F30009F92AF92BF92CF92DF92EF92FF920F9358
:101F40001F93CF93DF9389ECC82E83E0D82E94E1C2
:101F5000E92EFF24F394E701CC5CD10936011BC0C4
:101F6000F50185909490692DC8010E940C33682D6D
:101F7000C80101960E940C3382E0A80EB11C0E5FCE
:101F80001F4FC017D10761F782E2680E711CA2963D
:101F9000CE15DF0529F08E01025211095301E0CF61
:101FA0007E018CECE80EF11C8CECC80ED11C84E494
:101FB000E81684E0F80679F6DF91CF911F910F9132
:101FC000FF90EF90DF90CF90BF90AF909F908F9059
:101FD0007F906F900895CF93DF93C6E5D3E060E0E4
:101FE000CE010E940C332196C11584E0D807B9F7C1
:101FF000DF91CF910895CF93DF9300D00F92CDB7AB
:10200000DEB790919607943011F589837B836A83BC
:102010009093E9008FEF9091E800815095FD06C004
:1020200095ED9A95F1F700008111F5CF8091E800C8
:1020300085FF0DC050E040E063E070E0CE01019606
:102040000E946E078091E8008E778093E8000F90E1
:102050000F900F90DF91CF910895BC0184E00C9414
:10206000FB0FBC0183E00C94FB0F9C0184E0809388
:10207000E9009FEF8091E800915085FD06C085ED55
:102080008A95F1F700009111F5CF8091E80085FF66
:102090000CC050E040E066E070E0C9010E946E07AD
:1020A0008091E8008E778093E8000895CF93DF93C6
:1020B000EC01809123018823B1F180919B0687FF79
:1020C00032C060E284E08093E9008FEF9091E800F5
:1020D000815095FD06C095ED9A95F1F700008111AC
:1020E000F5CF8091E80085FF1BC08091230170E04F
:1020F00050E040E0811104C050E040E068E070E052
:10210000CE010E946E078091E8008E778093E800F0
:1021100080E2FE01A4E7B7E001900D928A95E1F715
:10212000DF91CF91089568E081E0CDCF81E0809389
:10213000E00080E28093D8001092C9008FE19EE415
:102140000197F1F700C0000087E090EBDC0180937D
:10215000B2099093B309A093B409B093B50988E18B
:102160009CE00FB6F894A895809360000FBE909302
:102170006000FFCF8091540780FD0AC0E0EBF2E0E1
:10218000118210821282339653E0EF3DF507C1F7BA
:102190006A9A3EB13B7F2EB124604FB7F89480EB32
:1021A00092E0FC015191CF0168E02EB9000000C01F
:1021B00057FF3EB9550F000000C000C000C03EB937
:1021C00000C06A9591F7F3E08F3D9F0751F74FBF2D
:1021D0008FE594E00197F1F700C000000895EF92B9
:1021E000FF921F93CF93DF93EC0180EBE82E82E008
:1021F000F82E10E08C8197014091570760915607A7
:10220000810F0E94320A1E5F83E0E80EF11C1A3C27
:1022100089F70E94BA109A818C8190FF08C08F5F65
:102220008C83DF91CF911F91FF90EF9008958150A3
:10223000F7CFBF92CF92DF92EF92FF920F931F934F
:10224000CF93DF93FC018281DD24DA9480FD02C00C
:10225000DD24D39400EB12E0D0E0C0E025E6B22EFE
:10226000F80111821082128294E0E92EF12CC12C27
:102270008091AD028C0D86360CF43DC06B2D0E9412
:102280004A2F892F082E000C990B8C179D0791F46B
:10229000809157078E9DA0018F9D500D112455955B
:1022A0004795559547959801609156078091550738
:1022B0000E94320ACD0CF1E0EF1AF108C9F621961E
:1022C0000D5F1F4FC536D10559F60E94BA10809197
:1022D000AD0291E0D91215C0811111C084E680933E
:1022E000AD02DF91CF911F910F91FF90EF90DF90A2
:1022F000CF90BF90089587FFC5CF8B59C3CF815032
:10230000EECF90E00196BE010E946C2FE8CF0F93B4
:102310001F93CF93DF93C0EBD2E0FE0111821082B6
:102320001282339683E0EF3DF807C1F710E000E03A
:102330008091AE02082E000C990B081719078CF13A
:1023400080911001082E000C990B801791074CF119
:102350009E014091570760915607809155070E9452
:10236000320A0F5F1F4F23960536110509F70E94A9
:10237000BA1080910F019091AE02980F9093AE0227
:1023800020911001280F20931001121614F4943696
:102390001CF0819580930F01DF91CF911F910F91D8
:1023A0000895198218821A82DCCF8F929F92AF9281
:1023B000BF92CF92DF92EF92FF920F931F93CF9332
:1023C000DF93EC014C81042F10E09801D8010E94AA
:1023D00094339B01AC010E945F334B015C01E0E24E
:1023E000F0E0E01BF10BA5E5B0E0AC019B010E9421
:1023F0005F336B017C019F01DF010E948D2F9B01E8
:10240000AC010E946A339B01AC01280D391D4A1DA5
:102410005B1DC701B6010E947233F22E822F90E03D
:1024200039E23F15D8F143E0249F900111243595FE
:102430002795122F109590EBC92E92E0D92E00E02F
:1024400085E5E82EEF188E2D01FD8F2D9601412F89
:10245000609156070E94320A0F5F53E0C50ED11CEF
:10246000053689F70E94BA109C8181E0992319F002
:10247000903219F48FEF8093110180911101890F2F
:102480008C83DF91CF911F910F91FF90EF90DF90A0
:10249000CF90BF90AF909F908F90089525E530E04A
:1024A000A901481B590BCA019A01220F331F280F9B
:1024B000391F37FFBCCF2F5F3F4FB9CFEF92FF924D
:1024C0000F931F93CF93DF938C01C0EBD2E0F12CDD
:1024D000E12CF80194816091560780915507F2E351
:1024E000EF16F104FCF49923F9F09E01409157078F
:1024F0000E94320A2FEFE21AF20A239685E6E816C6
:10250000F10439F70E94BA10F801848190E0019635
:10251000817099278483DF91CF911F910F91FF9054
:10252000EF900895992309F39E0140E0E1CF909147
:10253000540790FF0CC0E0EBF2E08183608342839C
:10254000339693E0EF3DF907C1F70C94BA10089564
:102550000F931F93CF93DF9300D00F92CDB7DEB7C9
:102560008C018091AF0281110AC09E012F5F3F4F05
:102570004FEF6FEF0E94320A8A818093AF02F80119
:102580006481613069F08091AF0240E0662361F0C0
:1025900040E0623011F44091AF0280E060E004C09E
:1025A0006091AF0240E080E00E949712F8018481C0
:1025B00090E0019663E070E00E946C2F84830F909E
:1025C0000F900F90DF91CF911F910F910895CF93AE
:1025D000DF9300D00F92CDB7DEB79091540790FFF4
:1025E0000AC09E012F5F3F4F0E94320A4B816981D2
:1025F0008A810E9497120F900F900F90DF91CF91D8
:102600000895CF93DF93EC01EC81F0E0E753FD4FA9
:102610004491E4E5F7E0628181810E94E7128C81B8
:102620008F5F8C83DF91CF910895CF93DF93EC017F
:10263000E4E5F7E0438162818C810E94E7128C819E
:102640008F5F8C83DF91CF9108954F925F926F924D
:102650007F928F929F92AF92BF92CF92DF92EF9232
:10266000FF920F931F93CF93DF93FC01628044800E
:1026700081E08483E9ECF2E07490E8E4F3E0E49133
:10268000CFEDD3E030EBE32E32E0F32E48EDC42E55
:1026900045E0D42E52E0A52EBB24B39488248A941E
:1026A000912C55245A94E7190E2F10E082E08615DC
:1026B00030F08091550788838091560789834110B7
:1026C00021C01B821A8297014A81698188810E94F8
:1026D000320A259683E0E80EF11CCC16DD0631F7B0
:1026E000DF91CF911F910F91FF90EF90DF90CF90EE
:1026F000BF90AF909F908F907F906F905F904F9022
:102700000C94BA108B818823E9F081508B83859DCE
:10271000C00111246C8170E00E94582FFB01FF273B
:10272000E753FD4F8491E82FE719E59DC00111247F
:10273000B8010E94582F80915707689FB00111245B
:102740007A83C1CF0E941F302091570726952158C8
:102750002A9DA0012B9D500D1124452F552784172C
:1027600095070CF0B0CF82E0861588F40E941F30E8
:10277000B4010E946C2F88830E941F30209156075D
:102780002695622F70E00E946C2F280F29831A82F1
:1027900080915707893C20F088EC8C838B8393CF02
:1027A0008431D8F784E1F9CF6BEE7EEF90E080E0E2
:1027B0000E942A3360E082E090E00E940C3360E0E7
:1027C00083E090E00E940C3310927A0610927B0610
:1027D00010927C0610927D0660E084E090E00E94FA
:1027E0000C3360E081E290E00E940C3360E085E011
:1027F00090E00E940C3360E086E090E00E940C3391
:102800006FEF87E090E00E940C3340E050E0BA01A7
:1028100088E090E00E941E3360E08DE090E00E942E
:102820000C3340E050E0BA0188E190E00E941E3392
:1028300060E087E190E00E940C3340E050E0BA0194
:102840008CE190E00E941E3360E080E290E00E9404
:102850000C3340E050E0BA0188E190E00E941E3362
:1028600040E050E0BA018FE090E00E941E3340E06B
:1028700050E0BA0183E190E00C941E33CF92DF92D6
:10288000EF92FF926B017C010E94230AB701A6011F
:1028900088E090E0FF90EF90DF90CF900C941E3393
:1028A0005F926F927F928F929F92AF92BF92CF92E0
:1028B000DF92EF92FF920F931F93CF93DF9300D09D
:1028C0000F92CDB7DEB7182F762E042F622E90917F
:1028D000540790FF29C0E92FE695AE2FB0E0AE5324
:1028E000BE4F8C91809351079E7F923081F59E015F
:1028F0002F5F3F4F812F0E94320A4B8169818A816D
:102900000E9497121093550770925607009357072D
:10291000662051F0609154077091550780915607D9
:10292000909157070E943E140F900F900F90DF91E7
:10293000CF911F910F91FF90EF90DF90CF90BF90BC
:10294000AF909F908F907F906F905F9008958230AE
:1029500019F400915707D6CF863019F41091550716
:10296000D1CF8930D9F3893169F6E9518E2F817041
:10297000582EE695F0E0EC53FD4FA590B490BB24A3
:1029800080EBE82E82E0F82ED12CC12C95E6892E22
:10299000912CC601B4010E94582F812F511013C0F1
:1029A000860F9701402F672D0E94320ACA0CDB1C4C
:1029B00083E0E80EF11C8FEDE81683E0F80649F796
:1029C0000E94BA109FCF861BECCFE4E5F7E043816D
:1029D0002AE0421B08F440E021E0628181810C94EE
:1029E0005014E4E5F7E043812AE0420F08F44FEF8A
:1029F00021E0628181810C945014E4E5F7E062816A
:102A00002AE0621B08F460E021E0438181810C949C
:102A10005014E4E5F7E062812AE0620F08F46FEFFA
:102A200021E0438181810C945014E4E5F7E0818139
:102A300021E0438162818A500C945014E4E5F7E070
:102A4000818121E043816281865F0C9450148091E2
:102A50005807882319F081508093580760915407D4
:102A60007091550780915607909157070C943E142A
:102A700080915807833018F48F5F809358076091D6
:102A800054077091550780915607909157070C9401
:102A90003E14E4E5F7E08DE0808311828FEF8283BE
:102AA0008383148260817181828193810C943E14AE
:102AB0001F920F920FB60F9211242F933F934F93B3
:102AC0005F936F937F938F939F93AF93BF93EF9396
:102AD000FF938091E10082FF09C08091E20082FFB4
:102AE00005C08091E1008B7F8093E1008091DA0046
:102AF00080FF24C08091D80080FF20C08091DA0040
:102B00008E7F8093DA008091D90080FF9BC080E1A6
:102B100089BD82E189BD09B400FEFDCF81E08093CB
:102B2000960780917107811109C00E941E070E94BB
:102B3000E9078091E20084608093E2008091E100E7
:102B400080FF17C08091E20080FF13C08091E200F7
:102B50008E7F8093E2008091E20080618093E200AA
:102B60008091D80080628093D80019BC85E0809362
:102B700096078091E10084FF29C08091E20084FFE4
:102B800025C080E189BD82E189BD89B5982F91700A
:102B900080FFFBCF8091D8008F7D8093D8008091FB
:102BA000E1008F7E8093E1008091E2008F7E809330
:102BB000E2008091E20081608093E20080919707BB
:102BC000882309F445C084E0809396078091E10052
:102BD00083FF27C08091E20083FF23C08091E10042
:102BE000877F8093E10082E0809396071092970799
:102BF0008091E1008E7F8093E1008091E2008E7FE2
:102C00008093E2008091E20080618093E20042E0E4
:102C100060E080E00E94B7078091F00088608093B8
:102C2000F000FF91EF91BF91AF919F918F917F91B4
:102C30006F915F914F913F912F910F900FBE0F9029
:102C40001F90189519BC109296071092710776CFB5
:102C50008091E30087FD93E090939607B7CF789437
:102C60001F921FB61F9211248F939F93AF93BF9310
:102C700080917E0690917F06A0918006B09181069A
:102C80000196A11DB11D80937E0690937F06A093AF
:102C90008006B0938106BF91AF919F918F911F9055
:102CA0001FBE1F9018952FB7F89480917E069091C3
:102CB0007F06A0918006B09181062FBF0895909164
:102CC000540790FF3DC09170811129C0926090938C
:102CD0005407662351F06091540770915507809115
:102CE0005607909157070E943E14609154076695CD
:102CF00070E04BE050E084E091E00E943830892B96
:102D0000A9F01092520781E08093A30620E0409141
:102D1000570760915607809155070C9450148B32D9
:102D200010F09465D4CF880F982BD1CF81E0809399
:102D300052070E9453169093A1068093A006E3CFFA
:102D40000895809154078695815009F48AE261E0E4
:102D50000C945F168091540786958F5F8B3208F034
:102D600081E061E00C945F169091540790FF07C0DA
:102D70009695981720F0961710F40C94AA1661E017
:102D80000C945F160E9453169C019091330780911A
:102D90003407982B21F03093300720932F07909120
:102DA000350780913607982B21F030932D0720931B
:102DB0002C07E0919D06F0919E06309749F082E045
:102DC000809331070480F581E02D81E397E0099439
:102DD000089590E080E00E94FC0990E080E00E946D
:102DE000E60910927706109276060E94CF0886E0D8
:102DF000E1E3F7E0DF011D928A95E9F710922E07D3
:102E000010922B071092FB050C94C2160F931F9380
:102E10008B019C01067011272227332706301105EC
:102E20002105310569F468606093A3077093A407D6
:102E30008093A5079093A6071F910F910C94E91614
:102E4000677FF2CF0F931F936091A3077091A40740
:102E50008091A5079091A6078B019C010670112710
:102E600022273327063011052105310529F4686032
:102E70001F910F910C940617677FFACF0F931F9342
:102E800041E050E060E070E004C0440F551F661F51
:102E9000771F8A95D2F7CB01BA016095709580951E
:102EA00090950091A3071091A4072091A507309158
:102EB000A60760237123822393231F910F910C9403
:102EC0000617909175068095892380937506282FA3
:102ED000277071F4282F082E000C330B921713065D
:102EE00039F08595859585950E943E171092750657
:102EF00008950F931F9341E050E060E070E004C03C
:102F0000440F551F661F771F8A95D2F78091A3073C
:102F10009091A407A091A507B091A6078A019B01F3
:102F2000082B192B2A2B3B2BC901B8011F910F919C
:102F30000C94061760937A0670937B0680937C0648
:102F400090937D060C94E9161092780680912301E7
:102F5000ECE8F2E0882359F080919B0687FF07C0D8
:102F60008EE1DF011D928A95E9F70C94E91686E05F
:102F7000F8CF1F93CF93DF93CDB7DEB7AA970FB6E5
:102F8000F894DEBF0FBECDBF88E997E02091F10035
:102F9000DC012D93CD01B7E0803A9B07B9F7809112
:102FA0009907833009F471C0B8F4813009F448C03E
:102FB000823009F4B2C08091E80083FF3AC1809169
:102FC0009807909199079A3008F033C1E92FF0E003
:102FD000ED54FC4C0C94802F8A3009F48DC08B305A
:102FE00009F470C0893039F780919807813219F758
:102FF00080919C0790919D07009711F00297D9F658
:103000008091E800877F8093E8008091E80082FF4C
:1030100037C09091F3008091F200029729F48091DB
:10302000F1008B7F813021F48091F1008093730750
:103030008091E8008B778093E8000E949807BBCFCF
:1030400080919807813A09F0B6CF8091E800877F98
:103050008093E80080919C0790919D07892B61F4F3
:1030600060E284E797E070E00E944A088091E800FF
:103070008B778093E8009FCF60E090E080E0F3CF13
:10308000809196078111C1CF96CF80919807813AA0
:1030900009F091CF80919C0790919D07892B09F0B1
:1030A0008ACF8091E800877F8093E8008091E800D4
:1030B00080FFFCCF809123018093F1008091E80094
:1030C0008E77B9CF80919807813209F074CF8091C3
:1030D0009C0790919D07892B09F06DCF8091E800A6
:1030E000877F8093E8000E94980780919A078093D9
:1030F00023010E94A4175FCF80919807813209F0C5
:103100005ACF8091E800877F8093E8000E9498075B
:1031100080919B07809372074ECF80919807813AE8
:1031200009F049CF8091E800877F8093E800809183
:10313000E80080FFFCCF80917207BECF803899F005
:10314000823809F076C080919C078F70873008F034
:1031500070C08093E9008091EB0085FB882780F99F
:103160001092E90006C08091940790919507911103
:1031700082609091E800977F9093E8008093F1003F
:103180001092F1008091E8008E77B5C1882309F490
:10319000A2C1823009F04DC080919A078111A6C169
:1031A00080919C078F702FEF280F263008F041C0C8
:1031B0008093E9002091EB0020FF98C1933031F417
:1031C0008091EB0080628093EB0090C19091EB00C6
:1031D00090619093EB0021E030E001C0220F8A95CE
:1031E000EAF72093EA001092EA008091EB008860F1
:1031F000EACF81111EC010919A071F778091E300DA
:103200008078812B8093E3008091E800877F809312
:10321000E8000E9498078091E80080FFFCCF809131
:10322000E30080688093E30082E0111183E08093E3
:1032300096078091E80083FF0AC08091E800877FAD
:103240008093E8008091EB0080628093EB00AA9667
:103250000FB6F894DEBF0FBECDBFDF91CF911F91A7
:1032600008958058823028F720919A0730919B0763
:103270002C3DE3E03E07A1F583E08A838AE289835F
:103280004FB7F894DE01139620E03EE051E2E32FC1
:10329000F0E050935700E49120FF03C0E295EF70F7
:1032A0003F5FEF708E2F90E0EA30C0F0C7968D93AD
:1032B0009D932F5F243159F74FBF8091E800877F9E
:1032C0008093E8006AE270E0CE0101960E944A080D
:1032D0008091E8008B778093E800ABCFC096E7CF72
:1032E00080919C0790919D07432F552743305105AE
:1032F00009F44AC078F54130510509F47AC08BE5EC
:1033000090E0E2EEF7E04230510509F092CF2091D3
:10331000E800277F2093E80020919E0730919F07C7
:103320008217930708F49C0140E02115310509F04C
:1033300065C0411163C08091E80082FDC9CF8091D2
:103340009607882329F2853019F28091E80083FFDF
:10335000F2CFBECF4132510509F43CC04232510593
:1033600009F067CF8330910508F063CFFC01EE0FC1
:10337000FF1FE458FD4F0190F081E02D87589D4FCD
:10338000DC018C9190E01AC0332721303105D1F057
:103390002115310561F02230310509F04ACFEFE403
:1033A000F8E0E4918E2F90E0EFE4F8E007C0E5E666
:1033B000F8E0E4918E2F90E0E5E6F8E0009709F45C
:1033C00038CFA5CFEBE5F8E0E4918E2F90E0EBE568
:1033D000F8E0F4CF8330910508F02BCF880F991FC8
:1033E000FC01EE57FD4F0190F081E02D89E090E067
:1033F0008ECF82E190E0EDE3F8E089CF80919607EF
:10340000882309F465CF853009F462CF8091E80004
:1034100083FD5ECF8091E80082FD8DCF8091E80032
:1034200080FF83CF9091F3008091F2002115310548
:1034300019F08830910550F041E0089709F040E01C
:103440008091E8008E778093E8006FCF449140939D
:10345000F1003196215031090196E8CF803809F00A
:10346000E8CE8091E800877F8093E80080919707FD
:103470008093F10087CE8111DCCE10919A07123033
:1034800008F0D7CE8091E800877F8093E800109302
:1034900097070E949807112311F084E005C08091DE
:1034A000E30087FDFACF81E08093960742E061EC6C
:1034B00081E00E94B70742E261EC84E00E94B70716
:1034C00042E261EC82E00E94B70742E260EC83E0F6
:1034D0000E94B707AECE80919A07813009F0A9CE3D
:1034E00081E0933009F080E0809395071092E90025
:1034F0008091E800877F8093E8000E94980799CE2A
:103500001F920F920FB60F9211242F933F934F9358
:103510005F936F937F938F939F93AF93BF93CF935B
:10352000DF93EF93FF93D091E900DF708091EC007F
:10353000C82FC17080FDC0E81092E9008091F000B2
:10354000877F8093F00078940E94B9171092E90069
:103550008091F00088608093F000CD2BCF70C093F5
:10356000E900FF91EF91DF91CF91BF91AF919F91D2
:103570008F917F916F915F914F913F912F910F901C
:103580000FBE0F901F901895882309F459C08238F8
:1035900071F40E94120A81FF53C089E30E943F091F
:1035A0000E94CF0889E30E9414090C94CF08833845
:1035B00059F40E94120A80FF43C083E50E943F092C
:1035C0000E94CF0883E5EFCF843859F40E94120A95
:1035D00082FF36C087E40E943F090E94CF0887E43B
:1035E000E2CF9CEF980F913AF0F290E2980F98306A
:1035F00088F4877021E030E0A90102C0440F551F14
:103600008A95E2F7CA018095909178068923809384
:103610007806CBCF9BE5980F933020F490E080E0C4
:103620000C94FC0998E5980F973120F490E080E025
:103630000C94E609803F20F00E94C80A0C94C21640
:103640000895CF93C82F882309F4AEC08238C1F4FF
:103650000E94120A81FDA8C089E30E943F090E94CE
:10366000CF082FEF81EE94E0215080409040E1F7A9
:1036700000C0000089E30E941409CF910C94CF0888
:103680008338A1F40E94120A80FD8EC083E50E9457
:103690003F090E94CF082FEF81EE94E02150804037
:1036A0009040E1F700C0000083E5E5CF8438A1F445
:1036B0000E94120A82FD78C087E40E943F090E949E
:1036C000CF082FEF81EE94E0215080409040E1F749
:1036D00000C0000087E4CFCF8CEF8C0F813A88F5D3
:1036E00080912301882301F180919B0687FF1CC0F4
:1036F000EC2FE695E695E695F0E0E657FD4F8281E2
:1037000090E04C2F477021E030E002C0220F331FC1
:103710004A95E2F782239323892B79F08C2F0E941C
:1037200014090E94CF0809C0ECE8F2E08191C817A3
:10373000A9F322E0E239F207C9F78C2F0E943F0972
:103740009CCF80E28C0F883068F4C77021E030E0B5
:1037500001C0220FCA95EAF780917806822B8093E8
:1037600078068BCFEBE5EC0FE33040F4F0E0E75D5B
:10377000FD4F808190E0CF910C94FC09E8E5EC0FBF
:10378000E73150F4F0E0EE0FFF1FE45DFD4F808164
:103790009181CF910C94E609C03F30F08C2F0E94AC
:1037A000830BCF910C94C216CF9108951F93CF93A2
:1037B000DF93182FD0E0C0E0893311F4C0E5D0E0EA
:1037C000812F0E94211B209731F4812FDF91CF910F
:1037D0001F910C94C41A8FE99FE00197F1F700C084
:1037E00000002197F0CF0F931F93CF93DF93C62F45
:1037F000D42F022FFC0182818823A1F06093A207BD
:103800000E9453169093A1078093A007C77081E090
:1038100001C0880FCA95EAF7DF91CF911F910F91F0
:103820000C94DC098091A207681335C08091A00731
:103830009091A1070E94AE08883C910560F510E2C6
:103840001D0FCD17B9F080E28C0F883040F4C7709F
:1038500081E001C0880FCA95EAF70E94D1091830AB
:1038600048F481E09D2F977001C0880F9A95EAF780
:103870000E94DC09802F0E94D61B183098F4D77064
:1038800081E001C0880FDA95EAF7DF91CF911F91AF
:103890000F910C94D109C77081E001C0880FCA95BF
:1038A000EAF7F3CFDF91CF911F910F9108953F92E7
:1038B0004F925F926F927F928F929F92AF92BF9240
:1038C000CF92DF92EF92FF920F931F93CF93DF93EC
:1038D00000D000D00F92CDB7DEB78C01FC01838100
:1038E0009481892B31F08081918189238F3F09F068
:1038F000AFC60F900F900F900F900F90DF91CF9168
:103900001F910F91FF90EF90DF90CF90BF90AF90FD
:103910009F908F907F906F905F904F903F90089511
:103920000E94250FF82E682F89819A810E949B0999
:1039300069817A818F2D0E948E0D7C01F801828130
:10394000882309F478C6C70182519F45409708F043
:10395000E2C58FEF93E00E94F832FEEEEF0E66E5CF
:10396000862E63E0962E882381F1809175068770FC
:1039700009F4BFCFF8018281882309F4BACF82E02D
:103980000F900F900F900F900F90DF91CF911F919C
:103990000F91FF90EF90DF90CF90BF90AF909F90EE
:1039A0008F907F906F905F904F903F900C94611735
:1039B000811424E09206C9F2C4010E94F8328111F8
:1039C00001C0EA943FEF831A930AE110F1CF1C8201
:1039D0001B82442443945AE0352E74018FEFE81A79
:1039E000F80AC4010E94F83289831A82882309F4F4
:1039F000BCCF9FEF980F933000F58A83498292E005
:103A0000890E911CC7010E94F8328B83882309F428
:103A1000ACCFFE0131967F01F70120812223E9F22C
:103A2000213009F049C091818281913041F4F2E066
:103A3000EF0EF11C0E94D61B09C04701EACF92305D
:103A400049F422E0E20EF11C0E94211B3FEFE31A31
:103A5000F30AE2CF933031F432E0E30EF11C0E941E
:103A6000C41AF4CF943021F08FEFE81AF80AEECFA1
:103A700092E0E90EF11C30E020E0B7016F5F7F4F6C
:103A8000F70141818053990B8A30910550F0215004
:103A90003109E0F28FE99FE00197F1F700C00000E3
:103AA000F6CF329EF001339EF00D11249C012E0FB3
:103AB0003F1F842F7B01E1CFE22FF0E0E55DF84F5F
:103AC0005490822F86958695869590E0FC01E55E60
:103AD000F84F64902770712C022E02C07594679481
:103AE0000A94E2F7E1E06E227724FC01E55FF84FEB
:103AF000A490B12C022E02C0B594A7940A94E2F7C8
:103B0000F1E0AF22BB24FC01E550F94FC490D12C69
:103B100002C0D594C7942A95E2F721E0C222DD24A1
:103B20006114710419F081EE0E94211BA114B104EB
:103B300019F086EE0E94211B852D0E94D61BAB2812
:103B400019F086EE0E94C41A672819F081EE0E94CF
:103B5000C41ACD2809F47ACF8CE26CCF81E00E94A0
:103B600079170E94221701CF81E00E943E17F9CFFA
:103B700082E0F5CF1092DD051092DC05EEEBF6E069
:103B800082ED96E020E221938E179F07E1F7FDC4B6
:103B900085EFE8168CE5F80609F469C008F463C0FF
:103BA00027E245EE66EEE6EFEE16ECE5FE0609F4DA
:103BB0003EC5F8019281992309F45BC51092A207D2
:103BC000F2E0EF16FCE5FF0608F44DC126E1E2162F
:103BD0002CE5F20638F097012A5F3C452930310583
:103BE00008F041C10E945A0D90939C0680939B0659
:103BF00030E1E3163CE5F30609F404C108F083C0A4
:103C000098E0E9169CE5F90609F4F2C008F04CC00A
:103C1000F4E0EF16FCE5FF0609F4E2C078F532E0C7
:103C2000E3163CE5F30609F4D1C083E0E8168CE521
:103C3000F80609F4D1C060919B06F0909C0684E0E0
:103C400090E00E940C336F2D81E290E00E940C33D3
:103C50000E94A4178ACE27E245EE65EEE8C426E26C
:103C600041EE60EEE4C427E245EE64EEE0C426E2F5
:103C700041EE62EEDCC428E241E0EFCF80919B068A
:103C8000806196E0E9169CE5F90609F4A2C08091EE
:103C90009B068860E7E0EE16ECE5FE0608F499C0A6
:103CA00080919B06806295C080919B068D7FFCE091
:103CB000EF16FCE5FF0609F48CC078F480919B06B2
:103CC0008C603AE0E3163CE5F30609F482C008F4A0
:103CD00093C080919B068E7F7CC080919B06877FDE
:103CE0009EE0E9169CE5F90609F473C080919B06F5
:103CF0008B7FEFE0EE16ECE5FE0608F46AC08091DB
:103D00009B068F7E66C0FBEFEF16FCE5FF0609F40D
:103D10006BC068F533E1E3163CE5F30609F47AC0BD
:103D200090F491E1E9169CE5F90609F46FC0E2E12F
:103D3000EE16ECE5FE0609F07ECF0E94A4178091F6
:103D40009B068F7746C0F5E1EF16FCE5FF0609F408
:103D500069C008F47DC080919C0681603AEFE3164B
:103D60003CE5F30609F067CF80939C0664CF8FEFA4
:103D7000E8168CE5F80609F451C0A0F480919C0681
:103D80008D7FEDEFEE16ECE5FE0671F380919C065B
:103D90008E7FFEEFEF16FCE5FF0630F380919C0668
:103DA0008360E2CF21E0E2162DE5F20609F459C066
:103DB00008F444C060E082E0E8168DE5F80609F0FA
:103DC0003ACF8EE090E00E940C3335CF80919B0675
:103DD000816080939B062FCF80919B068260F9CFF4
:103DE00080919B068460F5CF80919C068260BCCF59
:103DF00080919B068064EDCF0E94A41780919B0662
:103E00008068E7CF80919B068F7DE3CF80919B06F2
:103E10008F7BDFCF80919B06837FDBCF80919C06D9
:103E20008C7FA2CF80919B0682FB992790F921E09D
:103E3000922790FB82F990FB83F9CBCF80919C066F
:103E4000982F909591708E7F892B90FB81F98CCF64
:103E50000E94A41790919B06892F97FB87F98058A1
:103E6000B8CF61E0AECF80917806E6E1EE16ECE5E2
:103E7000FE0609F00CC48A7A91E009F490E0909370
:103E8000FA05811106C089E20E943F090E94CF080D
:103E90006CCD85E3F9CF85E3F7C38091540780FFAC
:103EA0001BC08E7F80935407609154077091550713
:103EB00080915607909157070E943E141092520726
:103EC000FFEF20E732E0F15020403040E1F700C042
:103ED00000000E94BA1049CD81608093540761E0D0
:103EE00086950E945F1641CD41EA56E16AEA76E185
:103EF0000E941E0A3ACD4AEA56E161EA76E1F8CF1D
:103F000045E155E16EE175E1F3CF4EE155E165E143
:103F100075E1EECF4DEF54E169E075E1E9CF49E09D
:103F200055E16DEF74E1E4CF45EE54E161EF74E1EA
:103F3000DFCF41EF54E165EE74E1DACF47E255E1BE
:103F400068E375E1D5CF48E355E167E275E1D0CF8D
:103F500061E081E0C6CF65E082E00E94B41605CD45
:103F600068E086E0FACF6EE089E0F7CF64E18FE0A9
:103F7000F4CF67E185E1F1CF61E088E1B2CF62E2A1
:103F800089E1EBCF61E083E2ACCFE1148CE5F80688
:103F900009F447C0EEEDEE16ECE5FE0609F44EC05E
:103FA000F801E080F180992309F44BC0C7010E9419
:103FB000250FD82E682FC7010E949B09B7018D2DB0
:103FC0000E949B0D7C01882EF801D280A580A294CE
:103FD0003FE0A322809175068770A1F0CD2CDD20F3
:103FE00091F08F2D807F803421F080E28E0D88301B
:103FF00048F082E00E946117809175068770CC249A
:10400000C3948111C12C3F2C32942FE03222FBE06B
:10401000F31508F452C0E32DF0E0E354FC4C0C948B
:10402000802F0E94A417FFEF24E33CE0F1502040D2
:104030003040E1F700C000000E9496100E94D413A7
:1040400094CCC7010E947309D82EB8CF2F2D2F70A2
:10405000A22E8F2D807F19F0A29490EFA922DD204F
:10406000C9F0AA2069F080E28E0D883010F081102E
:104070000BC080917806A82AA09278060E94CF08EB
:104080008E2D0E94211B19C080917706A82AA0922C
:104090007706F4CF8E2D0E94C41AAA2071F0A09446
:1040A00080E28E0D883010F081103DC0809178063E
:1040B000A822A09278060E94CF08232D2850330B07
:1040C0002430310510F40E94120ACC2009F411CCDE
:1040D0008091750680FD0DCCF8011282859585953D
:1040E00085950E947917C8010E94571C809175061A
:1040F0008595859585950F900F900F900F900F9057
:10410000DF91CF911F910F91FF90EF90DF90CF90B3
:10411000BF90AF909F908F907F906F905F904F90E7
:104120003F900C943E1780917706A822A0927706C4
:10413000C2CF3F2D3F70932E8F2D807F803219F09C
:10414000929480EF9822882071F081E0881661F1C6
:10415000DD20B9F1AA2071F1F801858180FF90CFAF
:104160008F70858327C0DD2091F090917906892D8D
:10417000892BA11003C00E94DC099FCFE1E0AE12A1
:10418000FACF981709F499CF8093790696CFA110AA
:1041900006C00E94C908892D0E94D1098ECFF1E086
:1041A000AF1609F48ACFF5CFDD2031F025E02A15CE
:1041B00008F483CF892DDFCF34E03A1508F47DCFA2
:1041C000EACFAA2041F3F9E38F1209C02FEF37EEAF
:1041D00083E0215030408040E1F700C000008E2D88
:1041E0000E94C41A6ACF8F2D86958695837061F0E0
:1041F000813009F062CFC7019370D11002C090E006
:1042000080E00E94E60959CFC7019370D11002C027
:1042100090E080E00E94FC0950CF8E2DDD2029F037
:104220000E94830B0E94C21648CF0E94C80AFACF90
:104230008F2D837009F066C0D1103FCF8E2D8295EF
:1042400086958770880F880F6E2D6F70462E512CC3
:10425000712C612C082E04C0440C551C661C771C64
:104260000A94D2F740E050E0BA01E4FE0FC04FE0FC
:1042700050E060E070E004C0440F551F661F771FD8
:104280008A95D2F740955095609570958F2D8695BB
:1042900086958370823019F1D8F480907A069090D8
:1042A0007B06A0907C06B0907D06813069F04429A1
:1042B000552966297729CB01BA01682179218A21FC
:1042C0009B210E949A17F9CE482859286A287B28F2
:1042D000CB01BA016429752986299729F2CF44298F
:1042E00055296629772940907A0650907B06609080
:1042F0007C0670907D06CB01BA0164257525862564
:104300009725DFCF8695DD2011F08F2D81708823D2
:1043100009F4D3CE8E2D829586958770880F880FED
:104320006E2D6F70462E512C712C612C082E04C0FE
:10433000440C551C661C771C0A94D2F740E050E0F0
:10434000BA01E4FE0FC04FE050E060E070E004C04E
:10435000440F551F661F771F8A95D2F740955095D9
:10436000609570958F2D869586958370823019F1B2
:10437000D8F48090A3079090A407A090A507B090D0
:10438000A607813069F04429552966297729CB0190
:10439000BA01682179218A219B210E9406178DCEBE
:1043A000482859286A287B28CB01BA016429752935
:1043B00086299729F2CF44295529662977294090E3
:1043C000A3075090A4076090A5077090A607CB01A3
:1043D000BA016425752586259725DFCF9F2D9F700F
:1043E000F92EDD2029F0892F0E9479178E2DC3CE5A
:1043F0008E2D0E94D1098F2D0E943E175ECE8E2DEC
:10440000E2EF8E1609F453C0E81578F0F0EF8F163E
:1044100029F121EF821609F442C0DD2009F46BC0B6
:10442000A1102ECE8F2D8F713FC033EF831609F46C
:1044300043C094EF8912F1CFDD2009F451C02F2D34
:104440002F71F22E822F0E94791738E0F39EC0015F
:1044500011248360809375068F2D26C0DD20D1F056
:10446000E4E0EA1508F429CE2F2D2F7161E070E009
:1044700080E090E004C0660F771F881F991F2A957F
:10448000D2F74090A3075090A4076090A5077090C2
:10449000A6079FCFF5E0FA1508F40FCEE5CF8F2DD4
:1044A0008F71DD2009F4A8CF0E94791706CE8F2DD9
:1044B0008F71DD20C9F3A0CF60E070E0CB01DD207B
:1044C00009F46BCF2F2D2F7161E070E080E090E058
:1044D00004C0660F771F881F991F2A95D2F75DCFFA
:1044E00081E00E94611781E08A1508F0E6CD82E044
:1044F0000E946117E2CDAA2059F0893309F06FCEEE
:104500009FEFE7EEF3E09150E040F040E1F765CE39
:104510008F2D8F7171CFF0E1EF16FFE5FF0609F4E3
:104520001DCB21E1E2162FE5F20609F421CB40E292
:10453000D42E8CE3E816F10420F4F701E351FE4F8A
:10454000D0801F92DF92FF92EF92F80180811F923C
:104550008F9381811F928F9384E291E09F938F9339
:104560001F9288E18F938EED95E09F938F930E9429
:1045700059300FB6F894DEBF0FBECDBF8091DC0579
:104580009091DD05449709F4F5CA8091DC0590917E
:10459000DD05FC01E254F94FD08201969093DD05D0
:1045A0008093DC058091F8059091F9050E94AE0892
:1045B000D82EC92E8093F6059093F7050E945316C6
:1045C0008093F8059093F905CF92DF929F938F9394
:1045D00085E391E09F938F931F9288E18F9383ED02
:1045E00096E09F938F930E9459300FB6F894DEBFE8
:1045F0000FBECDBF93EFE9169CE5F90609F42FCB6A
:1046000008F0C6CAF8EDEF16FCE5FF0609F423CB67
:1046100029EDE2162CE5F20609F42DCB37EDE31671
:104620003CE5F30609F0C5CA26E241EE61EEC80199
:104630000E94F31B9AC930E1E3163FE5F30609F443
:1046400093CA81E1E8168FE5F806A1F682E08DCAEB
:1046500085E0DE01119601900D928A95E1F7F8014F
:10466000228189819A8121115BC90E947309F82EE8
:104670005FC9F6E1EF16FCE5FF0609F091CC8091E9
:10468000FA05811108CC89E20E941409FFCB8272DD
:10469000F701E25CFC45E431F10508F076CCE75324
:1046A000FC4C0C94802F1F93CF93DF9380910106D5
:1046B000807FA9F48091FE05882389F080913306DC
:1046C000D09102066091FC057091FD05A091FF0557
:1046D000B0910006C62FC72316E0D81304C0DF919F
:1046E000CF911F91089590E0109711F0CF3F19F4EA
:1046F00001968770F2CF189F9001199F300D1124F9
:10470000F901ED5FF94F41814713F2CF4081461324
:10471000EFCF42814111ECCF438154814A1B5B0BA7
:10472000483C510528F7809101068F708061809385
:104730000106F901E85FF94F80818F708061808305
:104740008CEF95E00E94571CDF91CF911F910C9444
:10475000C709AF92BF92CF92DF92EF92FF920F9371
:104760001F93CF93DF93CDB7DEB761970FB6F89461
:10477000DEBF0FBECDBF8C0185E0F801DE011D96C6
:1047800001900D928A95E1F7F80180819181E28094
:104790002CEFA22E25E0B22E6091FF05709100064D
:1047A0006115710509F43EC13091FC054091FD058C
:1047B000232F24232F3F09F435C1C380D480F090E8
:1047C000FE05F601E61BF70BFF2009F4FBC0209164
:1047D0000106522F507FE83CF10508F0BBC0511193
:1047E00078C0FE2C491321C038131FC0E1101DC032
:1047F0002F70206120930106C5010E94571C8091F3
:104800000106F80185838F2D61960FB6F894DEBFFF
:104810000FBECDBFDF91CF911F910F91FF90EF9011
:10482000DF90CF90BF90AF900895CD2829F0282F2A
:1048300029232F3F09F014C120E0F22FF170DF2E61
:1048400020FF3DC0209133064091020656E024131C
:1048500015C08D879E878D859E850E94670F292FA5
:1048600022952F702230F8F0243020F59F70F9F057
:10487000F8019581907FD9F4D12C1FC030E0529F70
:10488000F001539FF00D1124ED5FF94F61819613F4
:1048900006C06081861303C06281E61210C02F5FDC
:1048A0003F4F2770D4CF9F7011F0882329F3805E8B
:1048B000883010F3C8010E94571CFD2CA4CFEE20B5
:1048C00009F4A1CF80910106816080930106F12C4B
:1048D0009ACF491312C0381310C0E1100EC0F8016E
:1048E0002583C8010E94571C86E0F801ACEFB5E0B3
:1048F00001900D928A95E1F786CF8D879E878D85F1
:104900009E850E94710F882309F1EE20F9F08091B5
:104910000106803270F02091FC053091FD0538874A
:104920002F831986DB86CA868C87CE0107960E9464
:10493000571C86E0F801ACEFB5E001900D928A9526
:10494000E1F70E945323FF24F3945DCFC8010E9436
:10495000571CF9CF51110AC08CEF95E00E94571CEB
:1049600086E0F50111928A95E9F7B1CF49130FC09E
:1049700038130DC0E1100BC0F8012583C8010E9457
:10498000571C86E0F50111928A95E9F73CCF8D8797
:104990009E878D859E850E94710F8823B9F2EE2037
:1049A000A9F280910106803220F22091FC0530911D
:1049B000FD053A8329831B82DD82CC828E83CE0162
:1049C0000196B5CFE83CF105E0F6FE2CEE2009F4A7
:1049D000BDCF491316C0381314C08091010680FD65
:1049E00083CF982F907F09F47FCFF8018583903F84
:1049F00009F477CF982F907F905F8F70892B8583F4
:104A000070CF8D879E878D859E850E94710F811145
:104A100090CF80910106816080930106C8010E94B9
:104A2000571CF1CEEE2009F491CF8D879E878D859E
:104A30009E850E94710FF82E882309F487CF86E0A7
:104A4000F801ACEFB5E001900D928A95E1F7809105
:104A5000FC059091FD050E94670F0E945323D3CE61
:104A600021E02E25EACE1F93CF93DF93CDB7DEB79B
:104A700067970FB6F894DEBF0FBECDBF342F4B8BB8
:104A8000252F5C8B6D8B7E8B8F8B8E899F8961111F
:104A9000109277061A8A198A3D872E876F87998B1D
:104AA000888B86E0FE013D96DE01179601900D92FF
:104AB0008A95E1F7CE0107960E94A923882389F001
:104AC00016E08091330690910206891349C06796DB
:104AD0000FB6F894DEBF0FBECDBFDF91CF911F910F
:104AE000089586E0FE013796DE01119601900D9241
:104AF0008A95E1F78A859B85892B11F38F819885AB
:104B000089238F3FE9F22091020630E0C901019626
:104B100087709927409133064817190671F40E944F
:104B2000A417109202061092330686E0ECEFF5E02F
:104B3000DF011D928A95E9F7C3CF96E0929FD001DD
:104B4000939FB00D1124AD5FB94FFE0131960190D6
:104B50000D929A95E1F7809302060E94C709B0CFA3
:104B6000819FC00111248D5F994F0E94A923882342
:104B700009F4ADCF8091330690E0019687709927B4
:104B8000809333069ECF2F923F924F925F926F9207
:104B90007F928F929F92AF92BF92CF92DF92EF92CD
:104BA000FF920F931F93CF93DF938AE5E82E82E065
:104BB000F82E02E816E0E801212C312CCC24C39415
:104BC000D12C812C912C54018394D7018D917D019E
:104BD000F894E82FE295EF70F0E021A18F70A60124
:104BE00002C0440F551F8A95E2F7CA01922F982BF5
:104BF00091A392A18095892382A3789400C0E0E6D6
:104C0000F2E030E020E0412C512C32018191A82FBC
:104C1000A295AF70B0E090964C9150E08F7002C0BA
:104C2000559547958A95E2F780E090E0DC0140FDDC
:104C30000AC0D501C401022E04C0880F991FAA1F03
:104C4000BB1F0A94D2F7482A592A6A2A7B2A2F5F67
:104C50003F4F21313105D1F6F701319780810E9414
:104C6000DD0B55E0251619F080EA8A95F1F7888169
:104C70009981AA81BB81481659066A067B0691F183
:104C8000488259826A827B8281E0382A2394249662
:104C9000A6E02A129ACF332039F181E08093AC024A
:104CA0000E9453169093AB028093AA028091AA02AD
:104CB0009091AB020E94AE080697D0F0E9E5F7E0CC
:104CC0008AE996E0D8014D915D916D917D918D01BC
:104CD00041935193619371938A179B0799F71092AF
:104CE000AC0206C080E0D1CF8091AC028111DECF52
:104CF000832DDF91CF911F910F91FF90EF90DF9067
:104D0000CF90BF90AF909F908F907F906F905F906B
:104D10004F903F902F900895CDB7DEB7AD970FB667
:104D2000F894DEBF0FBECDBF84B7877F84BF0FB6B8
:104D3000F894A8958091600088618093600010923B
:104D400060000FBE80E890E00FB6F8948093610099
:104D5000909361000FBE85B7806885BF85B7806876
:104D600085BF89EA98E090938902809388020E9427
:104D70001E070E94E9078091E20084608093E200B0
:104D80007894809196078823A1F01091E9001F7014
:104D90009091EC00892F817090FD80E8182B109283
:104DA000E9008091E80083FD0E94B9171F701093FD
:104DB000E90082E084BD93E095BD9AEF97BD8093B2
:104DC0006E0080E30E94DD0B81E30E94DD0B82E335
:104DD0000E94DD0B83E30E94DD0B87E30E94DD0B65
:104DE00085E90E94DD0B00E612E0D8018D918D016E
:104DF0000E94DD0BB2E001371B07B9F7E2E8F6E0ED
:104E00008AE996E0A9E5B7E0119211921192119208
:104E10001D921D921D921D928E179F07A9F70E9449
:104E2000C325EFEFF6E721E0E150F0402040E1F745
:104E300000C000000E94C3258091590780FF17C061
:104E40006FEF82E290E00E940C336FEF83E290E01C
:104E50000E940C336FEF84E290E00E940C336FEFFE
:104E60007FEF90E080E00E942A330E94961090E04D
:104E700080E00E9406338B3E9E4F11F00E94D413B7
:104E800082E290E00E94F832813209F0BBC683E2F0
:104E900090E00E94F832893009F0B4C684E290E0D4
:104EA0000E94F832853009F0ADC61092230780E8E1
:104EB0008093A7070E94552E6DE070E08EEB97E07F
:104EC0000E94020D892BE9F58091230763E070E0D1
:104ED00081FDCCC18BEB97E00E94020D892B89F5F7
:104EE0006DE070E08BEA97E00E94020D892B49F596
:104EF0000E94BD086054784D864F9F4F60932507F0
:104F0000709326078093270790932807EAEAF7E033
:104F100080E092E0DF019C011D9221503040E1F7DA
:104F2000F093B109E093B0098FEF9FEF9093A90739
:104F30008093A80781E080932A0780932907109225
:104F4000240790E080E00E9406338B3E9E4F11F0D4
:104F50000E94D41382E090E00E94F83280933807D8
:104F60000E945A0D90939C0680939B0683E090E0EC
:104F70000E94F832682F70E090E080E00E949A175B
:104F800080919A06811136C090E080E00E9406333D
:104F90008B3E9E4F21F00E94D4130E94491588E059
:104FA00090E00E94003360935407709355078093FC
:104FB0005607909357076E7F71F40E94491588E059
:104FC00090E00E94003360935407709355078093DC
:104FD0005607909357070E94230A10925207809118
:104FE000540780FF04C060E086950E945F1681E050
:104FF00080939A0660919B06606860939B0610916F
:105000009C0684E090E00E940C33612F81E290E0E6
:105010000E940C3389E191E090939E0680939D0657
:105020008091960700E112E1853009F460C10E9489
:10503000C3258BA781110E94BD08E9E3F7E0A9E52C
:10504000B7E010E000E0902F4D915D916D917D9162
:10505000419051906190719044165506660677060E
:1050600009F457C1442655266626772680E0812C10
:10507000912C5401839473016201C820D920EA2045
:10508000FB20CD28CE28CF2809F43BC189A39AA3C1
:10509000482159216A217B2181E0452B462B472B52
:1050A00009F480E08BA30E9453168160782F9DA3A2
:1050B0008CA349A15AA16BA18DA10E943325000F99
:1050C000111F000F111FF801E75CF84F80819181DB
:1050D000A281B38188259925AA25BB258083918348
:1050E000A283B383809152078823D1F18091510725
:1050F000E0915407E695E81BE093A206823009F0A0
:105100001FC1F0E0E452F84FE4910E2F10E0E1E00F
:10511000EE2EE3E1FE2E8091A306882361F010922B
:10512000A3060E9453169093A1068093A0061092A6
:10513000A5061092A4060E945316E091A006F091D5
:10514000A1068E1B9F0B8F3F9F4750F4E00FF11F6E
:10515000F093A106E093A00680EA96E0F701099596
:1051600080912A07882309F4ACC18AEA97E09093DA
:10517000B1098093B0090E94120AABE4EA2EA1E0C3
:10518000FA2E82FF04C0F4E4EF2EF1E0FF2E0E941D
:10519000120A0BE411E080FF02C002E511E00E9458
:1051A000120A81FD39C18BE491E0FF92EF921F93C7
:1051B0000F939F938F9380E691E09F938F931F921D
:1051C00088E18F9386EA96E09F938F930E945930EF
:1051D00086EA96E00E94EA0C81E00E94B80C8EEB11
:1051E00096E00E94EA0C81E00E94B80C83ED96E004
:1051F0000E94EA0C81E00E94B80C8091A307909174
:10520000A407A091A507B091A6070FB6F894DEBF3A
:105210000FBECDBF84309105A105B10509F450C280
:1052200008F0FDC00097A105B10509F406C16DE8BD
:1052300071E082309105A105B10509F400C1BF9369
:10524000AF939F938F9381EB91E09F938F931F92E6
:1052500088E18F938BEE96E09F938F930E94593055
:105260000FB6F894DEBF0FBECDBFEDC088EB97E060
:1052700033CE80919607843021F110929F0688E109
:1052800090E0A0E40FB6F894A895809360000FBE5C
:10529000A093600083B7817F846083BF83B7816000
:1052A00083BF7894889583B78E7F83BF0FB6F894B9
:1052B000A8958091600088618093600010926000E2
:1052C0000FBE80919507882391F00E94C325E9E5E0
:1052D000F7E081919191A191B191892B8A2B8B2B30
:1052E00009F07AC421E737E02E173F0791F7809144
:1052F0009607853009F4BDCF0E94A4170E94120AB8
:1053000096CE8F5F880C991CAA1CBB1C813109F0BA
:10531000B2CE0F5F1F4F0630110509F094CE8FEF0C
:105320008EA38FA318A60E9453168160782F9AA788
:1053300089A74EA15FA168A58AA50E943325D2CE78
:10534000863059F4F0E0E752F84FE4910E2F10E068
:1053500075E1E72E73E1F72EDECE893061F4E69534
:10536000F0E0EA52F84FE4910E2F10E06FEEE62ED7
:1053700060E1F62ED0CE8F3061F4E695F0E0ED528C
:10538000F84FE4910E2F10E059E1E52E51E1F52E92
:10539000C2CE853159F4F0E0E053F84FE4910E2F7E
:1053A00010E047E8E42E41E1F42EB5CE08E210E02B
:1053B00095EDE92E91E1F92E883109F4ACCE8332D6
:1053C00049F4EEECF7E00591149138EAE32E32E16E
:1053D000F32EA1CE8432C9F000ED17E0B8EAEB2E2F
:1053E000B8E0FB2E853209F096CE8E2F63E00E9446
:1053F0003E2FE92FF0E0E553F84FE4910E2F10E037
:1054000025E2E22E23E1F22E86CE04EF11E08EE5B6
:10541000E82E82E1F82E7FCE89E591E0C6CE883075
:105420009105A105B10531F08E309105A105B105B9
:1054300009F005CF6FE971E002C069E671E08BEE1B
:1054400096E00E9452308BEE96E00E94EA0C81E0DA
:105450000E94B80C80912A07882371F02091A80738
:105460003091A9072115310539F08091240761E0B9
:1054700070E0882309F428C180912907882309F165
:105480000E94BD080091250710912607209127074B
:1054900030912807601B710B820B930B6F3F7F4F7E
:1054A0008F4F9F4770F480912A07882351F062E064
:1054B00070E080EE97E00E94020D892B11F41092AB
:1054C00029072BA521110E94320D86E0E1E3F7E0C8
:1054D000DE01119601900D928A95E1F7F090330765
:1054E000E09034071091350700913607109233078A
:1054F0001092340710923507109236078F2D8E299F
:1055000009F448C080912F07909130070E94AE089F
:105510009C0190912E07992309F49BC323333105F5
:10552000C8F19F3F19F09F5F90932E07FF2059F01D
:105530000E94630B9FEF1F140CF491E0899F802D54
:10554000112480933307EE2059F00E94630B9FEFE4
:105550001E140CF491E0899F802D11248093340750
:10556000309133073323B1F020913407222391F097
:1055700045EB3403C0011124992309F470C19093C1
:10558000330745EB240390011124332309F46BC145
:1055900030933407812F802B09F448C080912C0769
:1055A00090912D070E94AE089C0190912B079923A2
:1055B00009F44AC325363105C8F19F3F19F09F5FB2
:1055C00090932B07112359F00E94410B9FEF111666
:1055D0000CF491E0899F802D1124809335070023DE
:1055E00059F00E94410B9FEF10160CF491E0899F37
:1055F000802D112480933607309135073323B1F085
:1056000020913607222391F045EB3403C001112489
:10561000992309F42CC19093350745EB240390019D
:105620001124332309F427C13093360780913307BF
:1056300090913407892B90913507892B90913607EB
:10564000892B11F00E94C21686E0FE013196A1E37B
:10565000B7E001900D928A95E1F70E94120A9091AD
:105660003707891721F00E94120A8093370780912B
:105670009607843009F0D4CC83E08093E9008091D0
:10568000E80082FFCDCC8091E80090E085FF06C065
:105690000E943D07882309F4F2C091E08091E80060
:1056A0008B778093E800992309F4BACCE981E15023
:1056B000E33108F05BC1F0E0E352FC4C0C94802F26
:1056C0006BE771E0BCCE8F5F082F10E07B01082EE6
:1056D00002C0EE0CFF1C0A94E2F7A9014E215F21E3
:1056E000452B89F39091230790FD43C08295880F45
:1056F00080768093140198013695279536952795E5
:1057000020931701815E809315011092180124E601
:1057100030E047E050E062E171E088E70E94E62E69
:10572000892B09F0A9CEA80175E0440F551F7A9581
:10573000E1F78091230780FD2AC04655584F04E6C3
:1057400010E020E230E060E488E70E940D2F892B12
:1057500009F092CE0E94320DE094F0948091A80757
:105760009091A907E822F922F092A907E092A807F0
:1057700083CE880F880F880F809314011092170131
:10578000895F8093150183E080931801C0CFE3E027
:10579000F7E080E2DF011D928A95E9F7E5E7F2E0A4
:1057A000FDA7ECA701E712E039E7232E32E0332E04
:1057B00067E0962E88248394ACA5BDA52D91BDA746
:1057C000ACA7F80141908F01440E552E511CC20127
:1057D0008655984F2C01E22FF0E0ED5FF84F30E056
:1057E00020E0692C621AC82C022E01C0CC0C0A944D
:1057F000EAF7520190E0D5018D915D018C21662D73
:10580000691B6770762E062E000C770BB82F01C02F
:10581000BB0F7A94EAF77B2E7195619571096770D9
:10582000772701C086956A95EAF7782A8081782AD9
:1058300070829F5F9830F9F62F5F3F4F3196283086
:10584000310579F6ECA5FDA52E163F0609F0B4CF7B
:1058500004E610E020E230E043E057E074CF81E05E
:10586000809333078ECE81E08093340793CE81E01E
:1058700080933507D2CE81E080933607D7CE00E201
:1058800010E0CE0101967C018091E80085FD0AC000
:105890008091E8008B778093E8000E943D07882381
:1058A00099F3FBCE8091F100D7018D937D010150DA
:1058B000110951F7F2CE1A8289E08B8311C08A81D7
:1058C000823009F4B8C1833091F1813009F04EC0C3
:1058D0000E94BD080E94862F6B837C838D839E83EC
:1058E00080919607843009F09BCB1091E9001F70DE
:1058F0009091EC00892F817090FD80E8182B82E058
:105900008093E9008091E80080FF0DC050E040E006
:1059100060E270E0CE0101960E946E078091E8007F
:105920008E778093E8001F701093E90079CBFE0119
:105930003196A9E5B7E04D915D916D917D916283BE
:1059400053834483339627E0A137B207A1F7C8CF2A
:105950008A81823059F46B817C818D819E810E9485
:10596000862F85E290E00E940C33BACF8FEF8983B7
:10597000B7CF4C816B818A810E94680D9827892757
:1059800098279E838D83ACCFED80FE80FE24EF248C
:10599000FE248A810B8132E2039F800111244CECAA
:1059A000849F000D111D11248C8190E0880F991F98
:1059B000080F191F6F2DC80186960E940C336E2D9B
:1059C000C8018796D0CF0E94950F8ACF8A818138EF
:1059D000C1F060F4803809F083CF20E04B81609102
:1059E0005607809155070E9450147ACF823859F19A
:1059F000833809F075CF20E0409157076C818B8187
:105A0000F2CF60E08B810E945F169B8180915407EA
:105A1000911111C08E7F80935407109252078FEF1F
:105A200090E7A2E081509040A040E1F700C0000064
:105A30000E94BA1055CF81608093540760E086952C
:105A40000E945F164DCF8B818093580749CF8A8182
:105A5000813899F030F4803809F042CF80915707AF
:105A60002CCF823891F0833809F03ACF80915507D6
:105A70008B83809156078C8333CF8091540780FFAE
:105A800002C086951ACF80E018CF8091580715CFB5
:105A90006091540770915507809156079091570770
:105AA0000E943E141DCF80E18A831ACF1A828AEAAF
:105AB00004CF0A811B81102701271027FE01319690
:105AC0006F01EC809F012E0D311D7901C8018A5AAA
:105AD0009C4FCE14DF0409F403CF0A3A110558F4A1
