:100000000C9423060C946A060C946A060C946A06F7
:100010000C946A060C946A060C946A060C946A06A0
:100020000C946A060C946A060C94351B0C94F11A15
:100030000C9450300C946A060C946A060C946A0670
:100040000C946A060C946A060C946A060C946A0670
:100050000C946A060C940C1C0C946A060C946A06A8
:100060000C946A060C946A060C946A060C946A0650
:100070000C946A060C946A060C946A060C946A0640
:100080000C946A060C946A060C946A060C946A0630
:100090000C946A060C946A060C946A060C946A0620
:1000A0000C946A060C946A060C946A060501098091
:1000B000A101850319012AB700150126B700950192
:1000C00075108100C0050C0901A101850419012AE0
:1000D000A002150126A002950175108100C005013E
:1000E0000906A1018505050719E029E71500250185
:1000F0009508750181020507190029EF15002501F2
:1001000095F075018102050819012905950575010C
:100110009102950175039101C00660FF0961A1017B
:100120000962150026FF00952075088102096315F4
:100130000026FF00952075089102C005010906A15F
:1001400001050719E029E7150025019508750181CA
:10015000029501750881010507190029FF15002680
:10016000FF00950675088100050819012905950508
:1001700075019102950175039101C0000101010112
:100180000101010101020202020202020202030352
:100190000303030303030404040404040405050522
:1001A00005050606060606070707070708080808E4
:1001B000090909090A0A0A0B0B0B0C0C0C0D0D0D91
:1001C0000E0E0E0F0F0F1010111111121213131427
:1001D00014151516161717181819191A1A1B1B1C9F
:1001E0001D1D1E1E1F2020212222232424252626F9
:1001F000272829292A2B2C2D2D2E2F30313232332E
:100200003435363738393A3B3C3D3E3F4041424336
:100210004445464748494A4C4D4E4F50515354551A
:100220005658595A5B5D5E5F616264656668696BCA
:100230006C6D6F7072737577787A7B7D7E80828348
:100240008587888A8C8E8F91939596989A9C9EA08C
:10025000A2A3A5A7A9ABADAFB1B3B5B7BABCBEC099
:10026000C2C4C6C9CBCDCFD1D4D6D8DBDDDFE2E462
:10027000E7E9EBEEF0F3F5F8FAFDFF29003A003B71
:10028000003C003D003E003F004000410042004372
:100290000044004500000046004700480035001EAD
:1002A000001F00200021002200230024002500263A
:1002B0000027002D002E002A0049004A004B002B89
:1002C0000014001A000800150017001C0018000C8C
:1002D00000120013002F00300031004C004D004E82
:1002E00000390004001600070009000A000B000D89
:1002F000000E000F00330034000000280000000052
:10030000000000E10031001D001B0006001900057F
:100310000011001000360037003800E500E500004D
:100320000052000000E000E300E200000000002CAA
:10033000000000000000000000E6000151E40000A1
:1003400000500051004F00A600680069006A006B71
:1003500000B900B80000000000000000000000002C
:100360000000000000AA00A900000000000000003A
:10037000000000000000000000000000000000007D
:100380000000000000C55CC75CCB5C000000000002
:10039000000000000000000000000000000000005D
:1003A00000000000000000C65CC85CCC5C000000DF
:1003B000000000000000000000000000000000003D
:1003C00000000000000000C25C000000000000000F
:1003D0000000000000B2000000000000000000006B
:1003E00000000000000000000000000000C95C00E8
:1003F00000000000000000000000000000000000FD
:1004000000000000000000000000000000C45CCA02
:100410005CC35CA600680069006A006B00B900B8A4
:1004200000000000000000000000000000000000CC
:1004300000AA00A900000000000000000000000069
:1004400000000000000000000000000000000000AC
:1004500000C55CC75CCB5C00000000000000000031
:10046000000000000000000000000000000000008C
:10047000000000C65CC85CCC5C000000000000000E
:10048000000000000000000000000000000000006C
:10049000000000C25C00000000000000000000003E
:1004A00000B200000000000000000000000000009A
:1004B000000000000000000000C95C000000000017
:1004C000000000000000000000000000000000002C
:1004D000000000000000000000C45CCA5CC35CA611
:1004E00000680069006A006B00B900B800000000F5
:1004F00000000000000000000000000000AA00A9A9
:1005000000000000000000000000000000000000EB
:1005100000000000000000000000000000C55CC7F3
:100520005CCB5C0000000000000000000000000048
:10053000000000000000000000000000000000C6F5
:100540005CC85CCC5C000000000000000000000003
:10055000000000000000000000000000000000C2D9
:100560005C000000000000000000000000B200007D
:10057000000000000000000000000000000000007B
:100580000000000000C95C00000000000000000046
:10059000000000000000000000000000000000005B
:1005A0000000000000C45CCA5CC35C00AF00000037
:1005B000000000000000000000000000000000003B
:1005C000000000000000000000000000000000002B
:1005D000007E0F00D4FFFFFFC7000000780000007E
:1005E00000000000002A2B2800000000000000008E
:1005F000000000000000000029000000002C1E3454
:1006000020212224342627252E362D3738271E1F59
:10061000202122232425263333362E37381F040584
:10062000060708090A0B0C0D0E0F101112131415F2
:10063000161718191A1B1C1D2F3130232D350405D0
:10064000060708090A0B0C0D0E0F101112131415D2
:10065000161718191A1B1C1D2F3130354C00DA02E1
:1006600081FFD9F1DB20A4A62EAF00A0C000A1C855
:1006700000AED580A81FD300408D14200000AE0925
:10068000025B00030100A0FA09040000010301015C
:100690000009211101000122400007058103080023
:1006A0000A090401000203000000092111010001F0
:1006B0002222000705820320000107050303200012
:1006C00001090402000103000000092111010001D9
:1006D000226D000705840320000A120110010000AA
:1006E0000008070007000100010200010A0347009B
:1006F000470038003600000008034E0045004F0058
:100700000000040309040000000000003E5B4F5B92
:100710003E003E6B4F6B3E001C3E7C3E1C00183C76
:100720007E3C18001C577D571C001C5E7F5E1C0021
:1007300000183C180000FFE7C3E7FF00001824186A
:100740000000FFE7DBE7FF0030483A060E002629ED
:1007500079292600407F05050700407F05253F00D9
:100760005A3CE73C5A007F3E1C1C0800081C1C3EFB
:100770007F0014227F2214005F5F005F5F00060984
:100780007F017F00006689956A006060606060009C
:1007900094A2FFA2940008047E04080010207E208A
:1007A000100008082A1C0800081C2A0808001E104F
:1007B000101010000C1E0C1E0C0030383E3830009B
:1007C000060E3E0E060000000000000000005F0064
:1007D0000000000700070000147F147F1400242A83
:1007E0007F2A120023130864620036495620500005
:1007F000000807030000001C224100000041221CE9
:1008000000002A1C7F1C2A0008083E0808000080FF
:100810007030000008080808080000006060000050
:100820002010080402003E5149453E0000427F402E
:1008300000007249494946002141494D33001814CE
:10084000127F10002745454539003C4A494931008F
:1008500041211109070036494949360046494929CD
:100860001E000000140000000040340000000008DA
:10087000142241001414141414000041221408001E
:100880000201590906003E415D594E007C121112C9
:100890007C007F49494936003E41414122007F4169
:1008A00041413E007F49494941007F090909010052
:1008B0003E41415173007F0808087F0000417F419D
:1008C00000002040413F01007F08142241007F408A
:1008D000404040007F021C027F007F0408107F0020
:1008E0003E4141413E007F09090906003E41512138
:1008F0005E007F0919294600264949493200030153
:100900007F0103003F4040403F001F2040201F0068
:100910003F4038403F006314081463000304780428
:1009200003006159494D4300007F414141000204E9
:1009300008102000004141417F0004020102040030
:100940004040404040000003070800002054547815
:1009500040007F2844443800384444442800384448
:1009600044287F0038545454180000087E090200BF
:100970001824241C78007F080404780000447D407B
:1009800000002040403D00007F102844000000414E
:100990007F4000007C04780478007C080404780020
:1009A0003844444438007C1824241800182424189F
:1009B0007C007C08040408004854545424000404B7
:1009C0003F4424003C4040207C001C2040201C0070
:1009D0003C4030403C004428102844004C9090900B
:1009E0007C004464544C4400000836410000000080
:1009F00077000000004136080000020102040200F6
:100A00003C2623263C0000000000008080808000FF
:100A10000000000080E070180C1830E0800000102A
:100A2000F8901030783010B8FC381000000000004A
:100A300000F8FCF8000000000000000000000000CA
:100A4000001C9C1C00000000F8FCF80000000000E6
:100A5000001CFCF8C000000000000080E0F87C1CD6
:100A6000000000F0FCFCFC1C1C1C1C1C1C1C1C00C2
:100A70000000000000C0F0F8381C1C1C1C1C1C3CB2
:100A8000F8F0E000E0F0F0F0E0ECEEF7F3702000BA
:100A90007C7C7C7E007E7E7E7F7F7F000080C0E04D
:100AA0007E5B4F5BFEC00000C000DCD7DEDEDED721
:100AB000DC00C0000000000000000000000000009A
:100AC00000000000000000000000000FBCE0818179
:100AD00081838382870C183060C000001FFE90B9AC
:100AE000FFBB91983C1811133F110000000000005B
:100AF00000FFFFFF000000000000000000000000F9
:100B000000FFFFFF00000000FFFFFF0000000000EB
:100B1000000000030F7FF8E080F0FC3F0F010000B1
:100B20000000003F3F3F1C1C1C1C1C3C78F8F0E000
:100B30008000000000C3E7FF7E3C3878787070F8D2
:100B4000FFDF87000F1F3F7F7F7F7F7F3F1E0C00EF
:100B50001F1F1F3F003F3F3F7F7F7F00307B7F781D
:100B600030202030787F3B0003000F7F0F0F0F7F76
:100B70000F00030000000000000000000000000063
:100B8000000000000000183C24666341C1818080A1
:100B90008080808081C14162386C4CC681818080B8
:100BA00080808081C14362361C1800000000000074
:100BB00000FFFFFFC0C0C0C0C0C0C0C0C0800000F8
:100BC000007FFF7F000000007FFFFFC0800000006B
:100BD000E0E0C0C0C0E0F97F1F0700000000000097
:100BE00000000070F0E0E0C0C0C0C0E0F0F87F3F5F
:100BF0000F0000000F3F7FF9E0E0C0C0C0C0C0E0C0
:100C0000F97F3F1F0000000000000000000000000E
:100C100000000000000000000000000000000000D4
:100C200000000000000000000000000000000000C4
:100C300000000000000000000000000000000000B4
:100C400000000000000011241FBECFEFDAE0DEBF7D
:100C5000CDBF04B603FE27C0809160099091610961
:100C6000A0916209B09163098730904BA740B04BC7
:100C7000D1F41092600910926109109262091092E9
:100C8000630914BE84B7877F84BF0FB6F894A89514
:100C900080916000886180936000109260000FBEB8
:100CA000E0E0F8E3099529E0A2EFB3E001C01D926E
:100CB000A036B207E1F713E0A0E0B1E0E4E4FCE61F
:100CC00002C005900D92A23FB107D9F70E949B2662
:100CD0000C94AE350C940000E8EDF0E080818E7F3E
:100CE00080831092E2001092DA001092E100A0EEF0
:100CF000B0E08C9181608C9380818F77808319BC68
:100D0000A7EDB0E08C918E7F8C9380818F7E808365
:100D10001092ED0608952091E4003091E50095E6EB
:100D2000A9012091EC00822F817020FF06C08091E4
:100D3000E80080FF06C080E008952091E80022FDD1
:100D40001AC080911207882389F0853089F080913C
:100D5000EB0085FD0FC02091E4003091E5004217C3
:100D60005307F9F29150E1F684E0089582E0089586
:100D700083E0089581E00895EF92FF920F931F930F
:100D8000CF937C018B010E948B06C82F811117C065
:100D90008091E80085FD0BC08091E8008E778093FC
:100DA000E8000E948B06882399F3C82F08C0F7013A
:100DB00081917F018093F1000150110949F78C2F37
:100DC000CF911F910F91FF90EF900895809114079C
:100DD00087FF13C08091E80082FF06C08091E80081
:100DE0008B778093E80004C0809112078111F2CFC5
:100DF0000895809112078823D9F38091E80080FF3D
:100E0000F8CF8091E8008E77ECCF982F9093E9008F
:100E1000242F762F50E0891731F07091EC0020914B
:100E2000ED005091F00021FD07C09F5F973071F7F2
:100E30008093E90081E008953091EB003E7F30938C
:100E4000EB003091ED003D7F3093ED003091EB00F1
:100E500031603093EB007093EC002093ED005093E1
:100E6000F0002091EE0027FDE0CF80E00895CF92C2
:100E7000DF92EF92FF920F931F93CF93DF93C8ED12
:100E8000D0E088818F7E8883E7EDF0E0808181600B
:100E9000808384E082BF81E08093ED0688818E7F2D
:100EA000888302EE10E0F80110821092DA0081EEE1
:100EB000C82ED12CF601108288818F778883888193
:100EC0008068888388818F7D888319BC109212077F
:100ED00010921307109211071092100790EEE92E4E
:100EE000F12CF70180818B7F8083888181608883EA
:100EF00042E060E080E00E940507F60180818E7F7D
:100F00008083F80180818160808380818860808314
:100F1000F70180818E7F8083888180618883DF9163
:100F2000CF911F910F91FF90EF90DF90CF90089598
:100F3000FC0180911A0790911B0786179707A0F074
:100F40006115710529F49091E8009E779093E8006F
:100F500090E06115710551F4911108C08091E8008D
:100F600082FF34C080E00895BC01F2CF8091120767
:100F70008823C1F18530C1F18091E80083FD30C044
:100F80008091E80082FDEACF8091E80080FFE1CF08
:100F90008091F3002091F200382F6115710519F04E
:100FA0002830310558F091E02830310509F090E003
:100FB0002091E8002E772093E800CBCF8191809399
:100FC000F100615071092F5F3F4FE7CF8091120709
:100FD000882341F0853041F08091E80083FFBECF47
:100FE00081E0089582E0089583E00895EF92FF92F2
:100FF0000F939701201B31092F3F310519F010F095
:101000002FEF30E02095382F320F08F43FEF832F79
:101010000F91FF90EF900895EF92FF920F93970139
:10102000201B31092F3F310519F010F02FEF30E070
:10103000322F3095482F430F08F44FEF842F620F63
:101040000F91FF90EF900895EF92FF920F93972FDB
:10105000093438F4B701601B71096F3F710519F04D
:1010600010F06FEF70E0485F5F4F4131510540F085
:10107000A901485F5F4F4131510510F06FEF70E0FB
:101080006095482F460F08F44FEF842F37FF02C0BA
:101090002D5F3F4F359527953595279560914D07E5
:1010A000620F792F0F91FF90EF900895EF92FF92CA
:1010B0000F931F930E0D1F2D111DF90137FF03C054
:1010C000F195E195F10924E0EE0FFF1F2A95E1F774
:1010D000EF3FF10519F014F0EFEFF0E09A0157FF40
:1010E00003C031952195310994E0220F331F9A9561
:1010F000E1F72E173F070CF4F901E00FF11FEF3F66
:10110000F10519F010F0EFEFF0E0E095282F3E2FF9
:10111000230F08F42FEF822F1F910F91FF90EF9074
:101120000895EF92FF920F93970195E0099F200D8C
:10113000311D11242F3F310519F010F02FEF30E051
:101140002095382F320F08F43FEF832F0F91FF9037
:10115000EF90089522E8241B08F420E0620F089520
:101160004095282F429F412D1124842F0895E42F6C
:10117000F0E0EE0FFF1FEA53FD4F9081921B97FDA9
:101180009195292F38E1239F212D1124620F089575
:101190000F931F9310E0F801EE0FFF1FEA53FD4F6E
:1011A0009081905797FD9195000F111FF801E95319
:1011B000FD4F00810052110B2003F001219FF00D23
:1011C000112408E310E0091B110997FD1395400352
:1011D0009001419F300D1124E20FF31F9F01220F58
:1011E000331F2E0F3F1F37FF02C021583F4F220FE2
:1011F000232F221F330B620F1F910F9108950F931E
:101200001F93522F10E0F801EE0FFF1FE953FD4F1F
:10121000A081A052BB0B9D015203F001539FF00D22
:101220001124000F111FD801AA53BD4F0C91005774
:10123000110B40039001419F300D11242E0F3F1FD1
:1012400037FF02C0215C3F4F96E0359527959A9570
:10125000E1F7620F1F910F9108950F931F93522F83
:1012600010E0F801EE0FFF1FE953FD4FA081A052DF
:10127000BB0B9D015203F001539FF00D1124000F91
:10128000111FD801AA53BD4F0C910057110B4003F9
:101290009001419F300D11242E0F3F1F37FF02C0D8
:1012A00021583F4F220F232F221F330B620F1F9114
:1012B0000F910895EF920F93972F23E0029FB001B3
:1012C0001124759567956E0D792F0F91EF90089504
:1012D000322F50E0FA01EE0FFF1FE953FD4F9081CE
:1012E000905297FD9195440F551FFA01EA53FD4F17
:1012F0002081231B330B290F311D97FD3A95620F77
:101300000895E42FF0E0EE0FFF1FE953FD4F6081D9
:10131000621B0895E42FF0E0EE0FFF1FEA53FD4F2C
:101320006081621B0895622F0895E42FF0E0EE0FB4
:10133000FF1FEA53FD4F408134EE439F412D11249E
:10134000E82FF0E050E0445E5F4FDA01A21BB109E4
:101350009D01B7FF03C031952195310993E0220F1C
:10136000331F9A95E1F7AF01421B530B9A0157FDCA
:1013700020E0582F259F212D1124822F0895E42F3E
:10138000F0E0EE0FFF1FEA53FD4F408134EE439F24
:10139000412D1124E72FF0E050E0445E5F4FDA0169
:1013A000A21BB1099D01B7FF03C0319521953109F9
:1013B00093E0220F331F9A95E1F7AF01421B530BC5
:1013C0009A0157FD20E0279F212D1124722F0895A7
:1013D00080E0089508958091EF0608959C014FB72D
:1013E000F8948091320690913306A0913406B09122
:1013F00035064FBF821B930B08952FB7F894609169
:1014000032067091330680913406909135062FBFD5
:1014100008958091E30581111092E305089580916C
:10142000E2059091E105892B9091E005892B80934D
:10143000F4039091E3059923A1F0892B8093F403A1
:1014400080911701882341F18091000687FF24C015
:101450008EE1E6EFF3E090E0815000F591110E94FB
:10146000090AE0910206F09103063097E1F08091BD
:101470001701882359F08091000687FF07C08091EB
:10148000F4038093F50385E08093F4030280F381F5
:10149000E02D84EF93E0099486E0DBCF21912223B5
:1014A000D9F29F5FD9CF0895909117019923D1F078
:1014B0009091000697FF16C0E82FE695E695E69511
:1014C000EE31E0F4F0E0EC50FC4F282F277081E083
:1014D00090E001C0880F2A95EAF7809592818923D0
:1014E00082830895E6EFF3E09191891303C0DF0151
:1014F00011971C9293E0EC3FF907B1F70895909192
:1015000017019923C1F09091000697FF14C0E82FAE
:10151000E695E695E695EE31F8F4F0E0EC50FC4FF8
:10152000877021E030E001C0220F8A95EAF78281BE
:10153000822B82830895A6EFB3E0EFEF90E02D9128
:10154000821751F0EF3F19F4211101C0E92F9F5F7D
:101550009630A9F7EF3F09F408950E2E000CFF0B0B
:10156000EC50FC4FE6CF21E1929F800D1124982F83
:10157000977086958695869525E0829FF0011124C7
:10158000E256FA4F50E040E080E0219130E0092E31
:1015900002C0369527950A94E2F721703327042E6E
:1015A00001C0220F0A94EAF7822B4F5F5F4F45304C
:1015B000510559F7089521E1929F800D1124982F2C
:1015C000977041E001C0440F9A95EAF78695869599
:1015D000869595E0899FF0011124E256FA4F90E03C
:1015E00080E070E05191DF0111979B01082E02C04D
:1015F000369527950A94E2F7217021952527242313
:1016000025272C9301968530910561F708958091E7
:101610009D0590916C05981301C008958F5F8770A8
:10162000FACF882341F080959091E2058923809339
:10163000E2050C940F0A0895882339F09091E20591
:10164000982B9093E2050C940F0A0895209145057C
:10165000309146052817390771F09093460580931D
:101660004505E0910206F0910306309721F00084D1
:10167000F185E02D099408952091430530914405AA
:101680002817390771F09093440580934305E09142
:101690000206F0910306309721F00680F781E02DD5
:1016A0000994089590E080E00E943C0B90E080E077
:1016B0000E94260B1092E1051092E0050C940F0A8F
:1016C0000F931F938B019C0106701127222733274C
:1016D000063011052105310569F4686060935107F2
:1016E0007093520780935307909354071F910F9163
:1016F0000C94520B677FF2CF0F931F9360915107A9
:101700007091520780915307909154078B019C016F
:1017100006701127222733270630110521053105D0
:1017200029F468601F910F910C94600B677FFACFCA
:101730000F931F9341E050E060E070E004C0440F5D
:10174000551F661F771F8A95D2F7CB01BA016095A6
:1017500070958095909500915107109152072091B6
:1017600053073091540760237123822393231F91E1
:101770000F910C94600B9091DF05809589238093E5
:10178000DF05282F277071F4282F082E000C330B4B
:101790009217130639F08595859585950E94980BCB
:1017A0001092DF0508950F931F9341E050E060E031
:1017B00070E004C0440F551F661F771F8A95D2F74B
:1017C0008091510790915207A0915307B09154070F
:1017D0008A019B01082B192B2A2B3B2BC901B8012D
:1017E0001F910F910C94600B6093E4057093E505D5
:1017F0008093E6059093E7050C94520BE091020666
:10180000F0910306309721F00190F081E02D0994CA
:1018100080E00895882309F452C0823871F40E9450
:10182000FE0B81FF4CC089E30E947F0A0E940F0AD1
:1018300089E30E94540A0C940F0A833859F40E94D9
:10184000FE0B80FF3CC083E50E947F0A0E940F0AC6
:1018500083E5EFCF843859F40E94FE0B82FF2FC03E
:1018600087E40E947F0A0E940F0A87E4E2CF9CEF80
:10187000980F913AF0F290E2980F983088F48770C0
:1018800021E030E0A90102C0440F551F8A95E2F71C
:10189000CA0180959091E20589238093E205CBCF20
:1018A0009BE5980F933020F490E080E00C943C0B83
:1018B000885A873120F490E080E00C94260B08953C
:1018C000FA01811101C0FB010994E7E1F4E0818391
:1018D00060834283339695E0E334F907C1F70895B6
:1018E000FC01EE0FFF1FE80FF91FE95EFB4F61835C
:1018F0004083228308950C94650C0C94700CFC01B9
:101900009B01009729F480E077FF2BC080E80895C1
:10191000AC0197FF04C044275527481B590BB90158
:10192000640F751F37FD10C0241B350BC901A5E0DE
:10193000880F991FAA95E1F70E94803180E2861BEB
:10194000F7FF0FC081950895CB0165E0880F991FBF
:101950006A95E1F7BA01621B730B0E94803180E641
:10196000EECF0895EF920F93CF93DF93D72FC82F29
:10197000C9010E19BA010E947F0C602F681B7D2FD0
:101980008C2FDF91CF910F91EF9008950F93CF930C
:10199000DF93D72FC82FC901BA010E947F0C682F8F
:1019A000600F7D2F8C2FDF91CF910F910895EF92D3
:1019B0000F931F93CF93DF93D62FC72F182FC901F3
:1019C0000E19010FBA010E947F0C081B202F219FC6
:1019D000212D1124822F6D2F7C2FDF91CF911F910C
:1019E0000F91EF900895EF920F931F93CF93DF9392
:1019F000D62F172FC82FC9010E19070FBA010E9441
:101A00007F0C702F781B719F712D11246D2F8C2FDF
:101A1000DF91CF911F910F91EF9008950F931F9336
:101A2000CF93DF93D62FC72F182FC901212F201B4B
:101A3000022FBA010E947F0C982F990F990F891BD2
:101A4000800F282F219F212D1124822F6D2F7C2F75
:101A5000DF91CF911F910F9108950F931F93CF9313
:101A6000DF93D62F172FC82FC901272F201B022F36
:101A7000BA010E947F0C982F990F990F782F791B2C
:101A8000700F719F712D11246D2F8C2FDF91CF91CD
:101A90001F910F910895E82F86FDE0952E2F2F704E
:101AA00086FD2F5FE695E695E695E670F0E0E35457
:101AB000FE4F9181929F902D212D112492959F7020
:101AC0002295207F922B2081920F87FD919580E8AF
:101AD000890F08950F931F93CF93DF938B01D82F16
:101AE000C42F822F0E944B0DEC2FF0E0EE0FFF1F52
:101AF000EA53FD4F90819058890F87FD8195880F9B
:101B0000682F2CE0629F612D1124600F712F8D2FA3
:101B1000DF91CF911F910F910895AC018230910513
:101B200008F408959FEF413E8EE1580740F49A0172
:101B300095E0369527959A95E1F798E0920F61E048
:101B4000E62FE90FFF27FF1F9F0135952795822F6D
:101B5000229FF001239FF00DF00D11244E175F0717
:101B600038F49FEF920F961758F78FEF860F08956E
:101B70002F3FE9F361E0620FF6CF0F93CF93DF932E
:101B8000D72FC82F47FD419588E390E0841B91092A
:101B900047FD9395889FB001899F700D700D1124AA
:101BA000229FC001239F900D900D1124860F971F37
:101BB0000E948D0D982F990F890F682F600F7D2F30
:101BC0008C2FDF91CF910F91089530E020E0869F18
:101BD000212D969F200D311D1124C9010895AF922A
:101BE000BF92CF92DF92FF920F931F93CF93DF9319
:101BF000362F472FE82FF0E0E558FE4F71110FC048
:101C0000E4918E2F2E2F6E2F722FDF91CF911F9187
:101C10000F91FF90DF90CF90BF90AF900895C72FA6
:101C2000D0E02491F22E022F10E056E0659FC00113
:101C30001124EFEFF0E0BF010E946C31832F90E0A0
:101C4000880F991F35E5369FD001379FB00D1124BD
:101C50008A1B9B0B982F990F980F6F01CC1ADD0AE6
:101C6000C09ED001C19EB00DD09EB00D11248B2F0F
:101C7000499FA0011124452F55276F01C41AD50A89
:101C8000C09EA001C19E500DD09E500D11245F0139
:101C9000A91AB108AC9E6001AD9ED00CBC9ED00CC0
:101CA0001124CD2CDD24EC19FD09E09FE001E19F1A
:101CB000D00DF09FD00D1124ED2F62307105A1F0F1
:101CC00050F46115710509F49ECF6130710581F002
:101CD000EB2F852F98CF6430710569F080F0663066
:101CE000710509F490CFF4CFE22F2B2F8D2F8BCFDE
:101CF000E22F252F88CFEB2F822F2D2F84CF2B2F54
:101D00008F2DE52F80CF7F928F929F92AF92BF92BF
:101D1000CF92DF92EF92FF920F931F93CF93DF93B7
:101D20005C01C091180184E1C89FC02D112414E109
:101D30001C0FF12E153610F034E6F32E609150078B
:101D4000669580914507909146070E94E50D782E93
:101D5000D0E0CF1590F081E0143608F080E0DF91FC
:101D6000CF911F910F91FF90EF90DF90CF90BF9098
:101D7000AF909F908F907F900895FE01E257FC4FA7
:101D80008081909119018923C9F1CE01880F991F93
:101D9000805A9D4FFC01EA59FF4F2081422F405746
:101DA000550B6A0189599F4FFC018081282F2052D1
:101DB000330B4901449F9001459F300D300D112494
:101DC000889CC001899C900D900D1124820F931F57
:101DD0000E948D0D082F60914D0770914E078091E4
:101DE0004F07E72C9401A601F50109950E94EF0D1C
:101DF000462F282F672FCE010E947D0C2196A9CF58
:101E0000CF92DF92EF92FF920F931F93CF93DF93C6
:101E10007C01C091180184E1C89FC02D112414E1F8
:101E20001C0FD12E153610F034E6D32E60915007DA
:101E3000669580914507909146070E94E50DC82E52
:101E4000D0E0CD1568F081E0143608F080E0DF9135
:101E5000CF911F910F91FF90EF90DF90CF90089559
:101E6000FE01E257FC4F808190911901892311F105
:101E7000CE01880F991F805A9D4FFC01E959FF4FF1
:101E800020812052330B8A599F4FFC0140814057DB
:101E9000550B60914D0770914E0780914F070C2DA7
:101EA000F70109950E94EF0D462F282F672FCE01CD
:101EB0000E947D0C2196C5CFDF92EF92FF920F9387
:101EC0001F93CF93DF937C01C091180184E1C89FD9
:101ED000C02D112414E11C0F012F153608F004E663
:101EE00060915007669566958091450790914607E9
:101EF0000E94E50DD82ED0E0C01760F081E01436C6
:101F000008F080E0DF91CF911F910F91FF90EF904B
:101F1000DF900895FE01E257FC4F808190911901F6
:101F2000892391F060914D0770914E0780914F0782
:101F30002D2D4C2FF70109950E94EF0D462F282FCC
:101F4000672FCE010E947D0C2196D6CF9F92AF9233
:101F5000BF92CF92DF92EF92FF920F931F93CF9396
:101F6000DF936C01C091180184E1C89FC02D11243A
:101F700014E11C0FB12E153610F034E6B32E60912B
:101F800050076695669580914507909146070E9497
:101F9000E50DF82E80E48F0D0E944B0D90E8A92EE0
:101FA000A80E8F2D0E944B0D20E8922E980ED0E0A7
:101FB000CB1580F081E0143608F080E0DF91CF91FE
:101FC0001F910F91FF90EF90DF90CF90BF90AF9057
:101FD0009F900895FE01E257FC4F80819091190176
:101FE0008923A1F060914D0770914E0780914F07B2
:101FF000EF2C0C2F292D4A2DF60109950E94EF0D8B
:10200000462F282F672FCE010E947D0C2196D0CF1E
:10201000CF92DF92EF92FF920F931F93CF93DF93B4
:102020007C01C091180184E1C89FC02D112424E1D6
:10203000D22EDC0ECD2C84E68D1510F494E6C92E3C
:102040002091500730E050E040E06FEF7FEF80E0FC
:1020500090E00E944B358901D0E02C2FCC1570F018
:1020600081E0F3E6FD1508F480E0DF91CF911F9148
:102070000F91FF90EF90DF90CF900895FE01E2570F
:10208000FC4F8081909119018923F1F040911C0748
:102090004150042E000C550B47FF18C0C801609139
:1020A00050070E94E50DAC0160914D0770914E07FD
:1020B00080914F07F70109950E94EF0D462F282FB9
:1020C000672FCE010E947D0C2196C7CFFA01E45EF6
:1020D000F84F818982130AC0FA01EE0FFF1FE45EF8
:1020E000F84F818D928D80179107C8F241505109A8
:1020F000D3CF2F923F925F926F927F928F929F9257
:10210000AF92BF92CF92DF92EF92FF920F931F9305
:10211000CF93DF93CDB7DEB72A970FB6F894DEBF23
:102120000FBECDBF8B837E836D832091180184E128
:10213000289F802D11248F838C5E89838A83853626
:1021400010F034E63A8380911C078C83FF81EF2FD7
:10215000F0E0FA87E987CF01880F991F9C012A5385
:102160003D4F69013B81832F90E0FC013196F88758
:10217000EF838A8199859817E8F081E0E981E43658
:1021800008F080E02A960FB6F894DEBF0FBECDBFF0
:10219000DF91CF911F910F91FF90EF90DF90CF9043
:1021A000BF90AF909F908F907F906F905F903F9087
:1021B0002F900895E985FA85E257FC4F8081909130
:1021C00019018923F1F020904D0730904E072F819F
:1021D0003885245E384F39015B8010E0FC815F1642
:1021E000D0F020914F07129F112D1124B101812FA2
:1021F0000E94EF0D462F282F672F89859A850E9410
:102200007D0C29853A852F5F3F4F3A87298732E039
:10221000C30ED11CAECFF30181913F01F601A08026
:10222000A81ABB088180F3018781881A9908AA9CA3
:102230009001AB9C300D300D1124889CC001899C0D
:10224000900D900D1124820F931F0E948D0D082F69
:10225000F301EE0FFF1FEC51F740609150078589A5
:1022600096890E94E50D7C019401A501B101812FA1
:10227000ED81FE8109951B015394182FAFCFF8947F
:10228000E82FE295EF70F0E031A1282F2F7081E068
:1022900090E001C0880F2A95EAF7982F9095932334
:1022A00091A392A1892B82A378940895909100061E
:1022B00092FF06C0282F28712830F9F4877F8460A8
:1022C00093FF06C0282F28712831F1F4877E84619E
:1022D0002091010620FF06C0382F38713830D9F41C
:1022E000877F816021FF06C0282F28712831D1F413
:1022F000877E816194FD877E0895282F2471243084
:10230000F9F68B7F8860DCCF282F2471243101F708
:102310008B7E8861DDCF382F3171313019F78E7F98
:102320008860E0CF282F2171213121F78E7E8861CE
:10233000E1CF1092E20580911701E6EFF3E08823E8
:1023400059F08091000687FF07C08EE1DF011D92E2
:102350008A95E9F70C94520B86E0F8CF1F93CF9340
:10236000DF93CDB7DEB7AA970FB6F894DEBF0FBEE6
:10237000CDBF84E197E02091F100DC012D93CD01E8
:10238000B7E08C319B07B9F780911507833009F4CA
:1023900071C0B8F4813009F448C0823009F4B2C089
:1023A0008091E80083FF3AC180911407909115074E
:1023B0009A3008F033C1E92FF0E0E055FA4C0C9464
:1023C00094318A3009F48DC08B3009F470C08930A3
:1023D00039F780911407813219F78091180790918D
:1023E0001907009711F00297D9F68091E800877FCE
:1023F0008093E8008091E80082FF37C09091F3005D
:102400008091F200029729F48091F1008B7F813056
:1024100021F48091F1008093EF068091E8008B77A2
:102420008093E8000E94E606BBCF80911407813AB2
:1024300009F0B6CF8091E800877F8093E800809113
:10244000180790911907892B61F460E280EF96E0FC
:1024500070E00E9498078091E8008B778093E800F5
:102460009FCF60E090E080E0F3CF80911207811170
:10247000C1CF96CF80911407813A09F091CF809116
:10248000180790911907892B09F08ACF8091E800ED
:10249000877F8093E8008091E80080FFFCCF8091E7
:1024A00017018093F1008091E8008E77B9CF809179
:1024B0001407813209F074CF8091180790911907A1
:1024C000892B09F06DCF8091E800877F8093E80029
:1024D0000E94E60680911607809317010E949911C9
:1024E0005FCF80911407813209F05ACF8091E800C4
:1024F000877F8093E8000E94E6068091170780930B
:10250000EE064ECF80911407813A09F049CF8091B1
:10251000E800877F8093E8008091E80080FFFCCF8F
:102520008091EE06BECF803899F0823809F076C0EF
:10253000809118078F70873008F070C08093E90091
:102540008091EB0085FB882780F91092E90006C096
:102550008091100790911107911182609091E8008D
:10256000977F9093E8008093F1001092F1008091A2
:10257000E8008E77B5C1882309F4A2C1823009F042
:102580004DC0809116078111A6C1809118078F70E8
:102590002FEF280F263008F041C08093E9002091EA
:1025A000EB0020FF98C1933031F48091EB00806202
:1025B0008093EB0090C19091EB0090619093EB00C1
:1025C00021E030E001C0220F8A95EAF72093EA006B
:1025D0001092EA008091EB008860EACF81111EC062
:1025E000109116071F778091E3008078812B8093EC
:1025F000E3008091E800877F8093E8000E94E60670
:102600008091E80080FFFCCF8091E3008068809398
:10261000E30082E0111183E0809312078091E800CB
:1026200083FF0AC08091E800877F8093E800809153
:10263000EB0080628093EB00AA960FB6F894DEBFA1
:102640000FBECDBFDF91CF911F910895805882308A
:1026500028F720911607309117072C3DE3E03E073D
:10266000A1F583E08A838AE289834FB7F894DE017B
:10267000139620E03EE051E2E32FF0E05093570044
:10268000E49120FF03C0E295EF703F5FEF708E2F63
:1026900090E0EA30C0F0C7968D939D932F5F243170
:1026A00059F74FBF8091E800877F8093E8006AE286
:1026B00070E0CE0101960E9498078091E8008B7728
:1026C0008093E800ABCFC096E7CF80911807909138
:1026D0001907432F55274330510509F44AC078F5AF
:1026E0004130510509F47AC08BE590E0EFE7F6E060
:1026F0004230510509F092CF2091E800277F2093C6
:10270000E80020911A0730911B078217930708F4FD
:102710009C0140E02115310509F065C0411163C0FD
:102720008091E80082FDC9CF80911207882329F2A9
:10273000853019F28091E80083FFF2CFBECF41329D
:10274000510509F43CC04232510509F067CF83308E
:10275000910508F063CFFC01EE0FFF1FEC5AFD4F0F
:102760000190F081E02D8F5A9D4FDC018C9190E01B
:102770001AC0332721303105D1F02115310561F020
:102780002230310509F04ACFECEEF6E0E4918E2FCD
:1027900090E0ECEEF6E007C0E2E0F7E0E4918E2F87
:1027A00090E0E2E0F7E0009709F438CFA5CFE8EF3A
:1027B000F6E0E4918E2F90E0E8EFF6E0F4CF83307E
:1027C000910508F02BCF880F991FFC01E65AFD4FA9
:1027D0000190F081E02D89E090E08ECF82E190E0E1
:1027E000EAEDF6E089CF80911207882309F465CFDE
:1027F000853009F462CF8091E80083FD5ECF80913F
:10280000E80082FD8DCF8091E80080FF83CF90911A
:10281000F3008091F2002115310519F088309105FF
:1028200050F041E0089709F040E08091E8008E7791
:102830008093E8006FCF44914093F100319621508E
:1028400031090196E8CF803809F0E8CE8091E800A0
:10285000877F8093E800809113078093F10087CEF3
:102860008111DCCE10911607123008F0D7CE80917E
:10287000E800877F8093E800109313070E94E60624
:10288000112311F084E005C08091E30087FDFACFA9
:1028900081E08093120742E061EC81E00E9405072D
:1028A00042E261EC84E00E94050742E261EC82E0D2
:1028B0000E94050742E260EC83E00E940507AECE6D
:1028C00080911607813009F0A9CE81E0933009F09C
:1028D00080E0809311071092E9008091E800877FE3
:1028E0008093E8000E94E60699CECF93DF93682F8D
:1028F00081E06A3019F06D3029F480E0DF91CF91EA
:102900000C94F61480915E0990915F0926E0FC0119
:10291000A8E5B9E001900D922A95E1F7603E08F430
:102920005AC026E0FC0111922A95E9F7C0915E0990
:10293000D0915F0946E050E0BE0188E599E00E9431
:102940003D329E0128553740892B41F1C90145E0B0
:10295000969587954A95E1F741E050E0BA0102C0AB
:10296000660F771F8A95E2F7CB0160915607709149
:102970005707862B972BB9016B5F7F4FE5E0769564
:102980006795EA95E1F702C0440F551F6A95E2F793
:10299000842B952B90935707809356072A5F3F4FC0
:1029A00040915507642F70E0C9010E946C31481BAB
:1029B000463010F4240F311D211572E0370710F056
:1029C00030E020E0285A384F30935F0920935E09A9
:1029D000DF91CF910895F6E06F9FB00111246A5FF7
:1029E000784F46E050E00E943432A0CFCF93382F8A
:1029F000E0915E09F0915F09E855F7402091550795
:102A0000622F70E0CF010E946C31281B822F33238C
:102A100061F066E00E946031C82FC15010F4CF9180
:102A2000089580E20E947514F8CF9F01280F311D90
:102A30002115324018F080E0F0E0E0E08E0F9F2F8B
:102A4000911D885A984F90935F0980935E09E7CF54
:102A50000F931F93CF93DF93EC01FC0101900020B3
:102A6000E9F78F0101501109C017D10728F0DF9154
:102A7000CF911F910F91089589910E947514F4CF01
:102A8000CF92DF92EF92FF920F931F93CF93DF933A
:102A90006C017B0164E670E088E70E947D30EC0108
:102AA00097FD12C010E000E0F601E00FF11F8491E5
:102AB00064E670E00E94D930EC01892B29F40F5FA5
:102AC0001F4F0E151F0581F70E945C31CE01DF916B
:102AD000CF911F910F91FF90EF90DF90CF900895CD
:102AE000CF93C091B9068091BA068823D1F00E9495
:102AF000FD096054784D864F9F4F6093B5067093E3
:102B0000B6068093B7069093B806C11108C062E07C
:102B100070E08BEA95E00E944015892B29F0C09166
:102B2000B9068C2FCF91089581E08093B906F7CF35
:102B3000CF9384E090E00E940935C82F81E290E0B5
:102B40000E940935982F8C2FCF9108950F931F93D2
:102B5000CF93DF93C42FD0E0CC0FDD1F22E2629F22
:102B6000C00DD11D11243CEC839FC00DD11D11243B
:102B7000CE0186960E940935082F10E0102F0027FD
:102B8000CE0187960E9409359801282BC901DF9153
:102B9000CF911F910F910895462F843038F47630ED
:102BA00028F4613118F4672F0C94A61590E080E0AA
:102BB0000895CF93DF930E94CC15EC0182389105E4
:102BC000A9F1D8F58133910509F496C048F5893209
:102BD000910509F48AC08A9709F495C0C11522E5C8
:102BE000D20708F0B6C0C11531E5D30708F026C1F9
:102BF000C83ED10508F09CC0C03ED10560F5C83A7A
:102C0000D10508F087C0C53AD10508F0EFC0C13042
:102C1000D10509F12097F9F0C430D105E0F440C0A6
:102C20008533910509F45AC0C997C1F68091000611
:102C3000837089F0C0EED0E00EC0833E910599F11B
:102C400070F4803E910501F1823E910539F6809144
:102C5000000682FD21C0CE01DF91CF910895863E0E
:102C6000910561F1873E910571F1843E910509F06E
:102C7000B5CF8091010681FFEECF80910006C7EEAF
:102C8000D0E084FD0DC0E7CF8091000680FD07C134
:102C90009091010690FFDFCFC3EED0E084FFDBCF41
:102CA000D0E0C0E0D8CF8091000682FDFBC09091BB
:102CB000010690FDBFCF84FFCECFF2CF80910006FA
:102CC00083FDDDCFC8CF8091000683FDEEC09091DB
:102CD000010691FFF0CFC4EED0E0BDCF8091000699
:102CE00085FFB9CFC9E2D0E0B6CF8091000685FF5D
:102CF000B2CFC5E3D0E0AFCF8091000686FFABCF67
:102D0000CAE2D0E0A8CF8091000686FFA4CFC1E33D
:102D1000D0E0A1CFCF3BD10518F6C85AD0E0CC0FF8
:102D2000DD1FCC5FDD4F0990D881C02DD46493CFD7
:102D3000C11540E5D40708F064C0C11580E4D80788
:102D400008F05CC0CE019A9581159F4108F483CFAD
:102D5000A7CFC11536E5D30718F5C11545E5D4074A
:102D600008F084C0C11584E5D80708F07AC09C2F0C
:102D7000969596959E0123703327C115D34508F487
:102D800062C0C1E0D0E002C0CC0FDD1F2A95E2F79F
:102D900030E2939FC0011124C82BD92BDA685BCF96
:102DA000C1158AE5D80778F4C11599E5D90708F067
:102DB00068C0C11528E5D20708F472CFDC2FCC27F4
:102DC000C06FD06A48CFCE0190568115904208F06E
:102DD00067CF8D2F8F710E94561190E0982F882712
:102DE00088279F719C012C2BE90149C0C55AD0E06E
:102DF000CF5FDD4FC881D0E0D0642DCFDF70D06AC7
:102E00002ACFCE01E4E096958795EA95E1F78370A5
:102E10002C2F26952695237040E2249F90011124A3
:102E2000382B8C2F8370C1E0D0E002C0CC0FDD1FA7
:102E30008A95E2F7C22BD32BDC680DCFDC2FCC2791
:102E4000C16FD06A08CFC1E0D0E002C0CC0FDD1F57
:102E50002A95E2F720E2929FC0011124C82BD92BBA
:102E6000EBCFDC2FCC27C46FD06AF5CE8C2F0E941D
:102E70005611C82FD0E0DC2FCC27CC27DF71D062D1
:102E8000EACE8C2F8F700E94561134E0D695C795EC
:102E90003A95E1F7CF709C2FEC01D069DCCEC9E305
:102EA000D0E0D9CEC2EED0E0D6CEC6EED0E0D3CEC2
:102EB000BF92CF92DF92EF92FF920F931F93CF9327
:102EC000DF938C01C0905107D0905207E0905307D8
:102ED000F09054078091E4059091E505A091E605F6
:102EE000B091E705C82AD92AEA2AFB2ACFE1D0E027
:102EF000BC2ED701C6010C2E04C0B695A795979598
:102F000087950A94D2F780FD0EC0219788F7B12CDF
:102F10008B2DDF91CF911F910F91FF90EF90DF905C
:102F2000CF90BF900895B8018C2F0E94D9150197BA
:102F300061F3EECFCF93DF93EC010E945817BE01EF
:102F4000DF91CF910C94D9150E949A17292F2F70D9
:102F500092959F7092509E3078F4E92FF0E0E654FD
:102F6000FA4C0C949431803F19F020F4883E20F400
:102F700081E00895843FE1F380E00895883EC0F346
:102F8000813FD1F7F5CF822F869586958695089556
:102F90006F927F928F929F92AF92BF92CF92DF9269
:102FA000EF92FF920F931F93CF93DF938BE7C82E7F
:102FB00082E0D82E94E1E92EFF24F394E701CC5C63
:102FC000D10936011BC0F50185909490692DC80187
:102FD0000E942735682DC80101960E94273582E09E
:102FE000A80EB11C0E5F1F4FC017D10761F782E218
:102FF000680E711CA296CE15DF0529F08E010252D3
:1030000011095301E0CF7E018CECE80EF11C8CEC31
:10301000C80ED11C84E4E81684E0F80679F6DF9146
:10302000CF911F910F91FF90EF90DF90CF90BF90C5
:10303000AF909F908F907F906F900895CF93DF9384
:10304000C6E5D3E060E0CE010E9427352196C11588
:1030500084E0D807B9F7DF91CF9108951F93CF93FC
:10306000DF93EC01FC01E257FC4F80816823A1F063
:103070000E942432182F0E942432612F782F8091D1
:103080004F070E94EF0D462F282F672FCE01DF91AB
:10309000CF911F910C947D0CDF91CF911F910895DA
:1030A000CF93DF9300D00F92CDB7DEB79091120788
:1030B000943011F589837B836A839093E9008FEFC5
:1030C0009091E800815095FD06C095ED9A95F1F735
:1030D00000008111F5CF8091E80085FF0DC050E020
:1030E00040E063E070E0CE0101960E94BC06809152
:1030F000E8008E778093E8000F900F900F90DF919B
:10310000CF910895BC0184E00C945018BC0183E079
:103110000C945018CF93DF93EC0180911701882312
:10312000B1F18091000687FF32C060E284E08093B5
:10313000E9008FEF9091E800815095FD06C095ED74
:103140009A95F1F700008111F5CF8091E80085FF95
:103150001BC08091170170E050E040E0811104C075
:1031600050E040E068E070E0CE010E94BC06809133
:10317000E8008E778093E80080E2FE01A0EFB6E0E1
:1031800001900D928A95E1F7DF91CF91089568E063
:1031900081E0CDCF81E08093E00080E28093D80091
:1031A0001092C9008FE19EE40197F1F700C0000082
:1031B00087E090EBDC018093600990936109A09314
:1031C0006209B093630988E19CE00FB6F894A89572
:1031D000809360000FBE90936000FFCFCF93C82F05
:1031E000882309F4A6C08238C1F40E94FE0B81FD39
:1031F000A0C089E30E947F0A0E940F0A2FEF81EE90
:1032000094E0215080409040E1F700C0000089E345
:103210000E94540ACF910C940F0A8338A1F40E94A3
:10322000FE0B80FD86C083E50E947F0A0E940F0A84
:103230002FEF81EE94E0215080409040E1F700C0F4
:10324000000083E5E5CF8438A1F40E94FE0B82FDE7
:1032500070C087E40E947F0A0E940F0A2FEF81EE60
:1032600094E0215080409040E1F700C0000087E4E6
:10327000CFCF8CEF8C0F813A88F58091170188238E
:1032800001F18091000687FF1CC0EC2FE695E695C2
:10329000E695F0E0EC50FC4F828190E04C2F4770B7
:1032A00021E030E002C0220F331F4A95E2F782236B
:1032B0009323892B79F08C2F0E94540A0E940F0AC5
:1032C00009C0E6EFF3E08191C817A9F323E0EC3FD2
:1032D000F207C9F78C2F0E947F0A9CCF80E28C0FE7
:1032E000883068F4C77021E030E001C0220FCA9531
:1032F000EAF78091E205822B8093E2058BCFEBE524
:10330000EC0FE33040F4F0E0EF5FFD4F808190E0A0
:10331000CF910C943C0BC85AC73158F4EC2FF0E015
:10332000EE0FFF1FEC5FFD4F80819181CF910C94D8
:10333000260BCF9108951F93CF93DF93182FD0E0E2
:10334000C0E0893311F4C0E5D0E0812F0E94EE186F
:10335000209731F4812FDF91CF911F910C940A0CAB
:103360008FE99FE00197F1F700C000002197F0CFAF
:103370006A9A3EB13B7F2EB124604FB7F89487E143
:1033800094E0FC015191CF0168E02EB9000000C02B
:1033900057FF3EB9550F000000C000C000C03EB945
:1033A00000C06A9591F7F5E083349F0751F74FBF4E
:1033B0008FE594E00197F1F700C0000008956BEEEF
:1033C0007EEF90E080E00E94453560E082E090E092
:1033D0000E94273560E083E090E00E94273510923C
:1033E000E4051092E5051092E6051092E70560E00D
:1033F00084E090E00E94273560E081E290E00E9446
:10340000273560E085E090E00E94273560E086E0A7
:1034100090E00E9427356FEF87E090E00E9427350B
:1034200040E050E0BA0188E090E00E94393560E069
:103430008DE090E00E94273540E050E0BA0188E13D
:1034400090E00E94393560E087E190E00E942735E6
:1034500040E050E0BA018CE190E00E94393560E034
:1034600080E290E00E94273540E050E0BA0188E118
:1034700090E00E94393540E050E0BA018FE090E0E2
:103480000E94393540E050E0BA0183E190E00C94AD
:10349000393545E050E06CE170E08CE497E00C9445
:1034A000173590914C07937089F0811107C0946093
:1034B00090934C0710921B010C94491A873210F01C
:1034C0009869F6CF880F880F982BF2CF08958091D6
:1034D0004C0786958695815009F486E20C94511A22
:1034E00080914C07869586958F5F873208F081E042
:1034F0000C94511A90914C07937059F080934D079A
:1035000060934E07493C08F048EC40934F070C94F9
:10351000491A0895ECE4F7E0438120E1421B08F4E6
:1035200040E08181628190E00C947A1AECE4F7E04B
:10353000438120E1420F08F44FEF8181628190E0E6
:103540000C947A1AECE4F7E0628120E1621B08F443
:1035500060E08181438190E00C947A1AECE4F7E01A
:10356000628120E1620F08F46FEF8181438190E076
:103570000C947A1AECE4F7E08181438162818850EF
:10358000990B0C947A1AECE4F7E0818190E0438186
:10359000628108960C947A1AECE4F7E0248130E119
:1035A000230F08F42FEF24830C94491AECE4F7E07E
:1035B000248130E1231B08F420E024830C94491A71
:1035C000ECE4F7E089E4808380911C0190911D0177
:1035D000A0911E0181839283A3838FE784830C943F
:1035E000491A1F920F920FB60F9211242F933F93F7
:1035F0004F935F936F937F938F939F93AF93BF93FB
:10360000CF93DF93EF93FF93D091E900DF70809128
:10361000EC00C82FC17080FDC0E81092E9008091D5
:10362000F000877F8093F00078940E94AE11109292
:10363000E9008091F00088608093F000CD2BCF707E
:10364000C093E900FF91EF91DF91CF91BF91AF91CE
:103650009F918F917F916F915F914F913F912F91AA
:103660000F900FBE0F901F9018951F920F920FB6DC
:103670000F9211242F933F934F935F936F937F93F8
:103680008F939F93AF93BF93EF93FF938091E1004C
:1036900082FF09C08091E20082FF05C08091E100B5
:1036A0008B7F8093E1008091DA0080FF24C08091BD
:1036B000D80080FF20C08091DA008E7F8093DA00EE
:1036C0008091D90080FF9BC080E189BD82E189BDE6
:1036D00009B400FEFDCF81E0809312078091ED06D2
:1036E000811109C00E946C060E9437078091E20098
:1036F00084608093E2008091E10080FF17C0809198
:10370000E20080FF13C08091E2008E7F8093E20090
:103710008091E20080618093E2008091D800806215
:103720008093D80019BC85E0809312078091E10056
:1037300084FF29C08091E20084FF25C080E189BD1B
:1037400082E189BD89B5982F917080FFFBCF809170
:10375000D8008F7D8093D8008091E1008F7E809388
:10376000E1008091E2008F7E8093E2008091E20090
:1037700081608093E20080911307882309F445C09B
:1037800084E0809312078091E10083FF27C080913D
:10379000E20083FF23C08091E100877F8093E100F6
:1037A00082E080931207109213078091E1008E7FD0
:1037B0008093E1008091E2008E7F8093E20080910F
:1037C000E20080618093E20042E060E080E00E94DD
:1037D00005078091F00088608093F000FF91EF91E1
:1037E000BF91AF919F918F917F916F915F914F9119
:1037F0003F912F910F900FBE0F901F90189519BCFD
:10380000109212071092ED0676CF8091E30087FDAB
:1038100093E090931207B7CF78941F921FB61F9230
:1038200011248F939F93AF93BF9380913206909111
:103830003306A0913406B09135060196A11DB11D45
:103840008093320690933306A0933406B0933506E6
:10385000BF91AF919F918F911F901FBE1F901895A0
:103860002FB7F8948091320690913306A0913406D8
:10387000B09135062FBF08950F931F93CF93DF9319
:10388000C62FD42F022FFC0182818823A1F06093E0
:103890004B070E94301C90934A0780934907C770DA
:1038A00081E001C0880FCA95EAF7DF91CF911F919F
:1038B0000F910C941C0B80914B07681335C08091BD
:1038C000490790914A070E94EE09883C910560F5EE
:1038D00010E21D0FCD17B9F080E28C0F883040F454
:1038E000C77081E001C0880FCA95EAF70E94110BEA
:1038F000183048F481E09D2F977001C0880F9A9589
:10390000EAF70E941C0B802F0E949B19183098F434
:10391000D77081E001C0880FDA95EAF7DF91CF9187
:103920001F910F910C94110BC77081E001C0880F9B
:10393000CA95EAF7F3CFDF91CF911F910F910895C8
:103940003F924F925F926F927F928F929F92AF922F
:10395000BF92CF92DF92EF92FF920F931F93CF937C
:10396000DF9300D000D00F92CDB7DEB78C01FC0101
:1039700083819481892B31F08081918189238F3FCC
:1039800009F075C60F900F900F900F900F90DF9178
:10399000CF911F910F91FF90EF90DF90CF90BF904C
:1039A000AF909F908F907F906F905F904F903F90DF
:1039B00008950E945817F82E682F89819A810E94D5
:1039C000DB0A69817A818F2D0E94CC157C01F80178
:1039D0008281882309F43EC6C70182519F454097E2
:1039E00008F0A8C58FEF93E00E940935FEEEEF0EB8
:1039F00066E5862E63E0962E882381F18091DF05AF
:103A0000877009F4BFCFF8018281882309F4BACF07
:103A100082E00F900F900F900F900F90DF91CF9159
:103A20001F910F91FF90EF90DF90CF90BF90AF90DC
:103A30009F908F907F906F905F904F903F900C94ED
:103A4000BB0B811424E09206C9F2C4010E9409351F
:103A5000811101C0EA943FEF831A930AE110F1CF7C
:103A60001C821B82442443945AE0352E74018FEF4C
:103A7000E81AF80AC4010E94093589831A8288234A
:103A800009F4BCCF9FEF980F933000F58A834982E9
:103A900092E0890E911CC7010E9409358B8388230F
:103AA00009F4ACCFFE0131967F01F701208122237A
:103AB000E9F2213009F049C091818281913041F4CD
:103AC000F2E0EF0EF11C0E949B1909C04701EACFFA
:103AD000923049F422E0E20EF11C0E94EE183FEF12
:103AE000E31AF30AE2CF933031F432E0E30EF11C33
:103AF0000E940A0CF4CF943021F08FEFE81AF80AF4
:103B0000EECF92E0E90EF11C30E020E0B7016F5FEC
:103B10007F4FF70141818053990B8A30910550F016
:103B200021503109E0F28FE99FE00197F1F700C0E1
:103B30000000F6CF329EF001339EF00D11249C015F
:103B40002E0F3F1F842F7B01E1CFE22FF0E0E352E5
:103B5000FA4F5490822F86958695869590E0FC01C9
:103B6000E353FA4F64902770712C022E02C07594B3
:103B700067940A94E2F7E1E06E227724FC01E354B3
:103B8000FA4FA490B12C022E02C0B594A7940A94C7
:103B9000E2F7F1E0AF22BB24FC01E355FA4FC490F9
:103BA000D12C02C0D594C7942A95E2F721E0C22215
:103BB000DD246114710419F081EE0E94EE18A11445
:103BC000B10419F086EE0E94EE18852D0E949B1913
:103BD000AB2819F086EE0E940A0C672819F081EED6
:103BE0000E940A0CCD2809F47ACF8CE26CCF81E0D8
:103BF0000E94D30B0E947C0B01CF81E00E94980BA6
:103C0000F9CF82E0F5CF1092480510924705EEE417
:103C1000F6E082E696E020E221938E179F07E1F717
:103C2000C3C485EFE8168CE5F80609F469C008F40A
:103C300063C027E245EE66EEE6EFEE16ECE5FE0623
:103C400009F404C5F8019281992309F421C5109261
:103C50004B07F2E0EF16FCE5FF0608F44DC126E144
:103C6000E2162CE5F20638F097012A5F3C45293030
:103C7000310508F041C10E94981590930106809388
:103C8000000630E1E3163CE5F30609F404C108F050
:103C900083C098E0E9169CE5F90609F4F2C008F043
:103CA0004CC0F4E0EF16FCE5FF0609F4E2C078F53D
:103CB00032E0E3163CE5F30609F4D1C083E0E816F0
:103CC0008CE5F80609F4D1C060910006F090010679
:103CD00084E090E00E9427356F2D81E290E00E9401
:103CE00027350E9499118ACE27E245EE65EEAEC4D3
:103CF00026E241EE60EEAAC427E245EE64EEA6C4D9
:103D000026E241EE62EEA2C428E241E0EFCF8091CC
:103D10000006806196E0E9169CE5F90609F4A2C068
:103D2000809100068860E7E0EE16ECE5FE0608F4F8
:103D300099C080910006806295C0809100068D7FB9
:103D4000FCE0EF16FCE5FF0609F48CC078F48091E6
:103D500000068C603AE0E3163CE5F30609F482C005
:103D600008F493C0809100068E7F7CC0809100068D
:103D7000877F9EE0E9169CE5F90609F473C08091FF
:103D800000068B7FEFE0EE16ECE5FE0608F46AC055
:103D9000809100068F7E66C0FBEFEF16FCE5FF0604
:103DA00009F46BC068F533E1E3163CE5F30609F46A
:103DB0007AC090F491E1E9169CE5F90609F46FC028
:103DC000E2E1EE16ECE5FE0609F07ECF0E949911C5
:103DD000809100068F7746C0F5E1EF16FCE5FF06FF
:103DE00009F469C008F47DC08091010681603AEF52
:103DF000E3163CE5F30609F067CF8093010664CF34
:103E00008FEFE8168CE5F80609F451C0A0F4809114
:103E100001068D7FEDEFEE16ECE5FE0671F3809165
:103E200001068E7FFEEFEF16FCE5FF0630F3809172
:103E300001068360E2CF21E0E2162DE5F20609F4E7
:103E400059C008F444C060E082E0E8168DE5F80649
:103E500009F03ACF8EE090E00E94273535CF80916F
:103E600000068160809300062FCF8091000682605B
:103E7000F9CF809100068460F5CF809101068260C1
:103E8000BCCF809100068064EDCF0E949911809193
:103E900000068068E7CF809100068F7DE3CF809198
:103EA00000068F7BDFCF80910006837FDBCF809180
:103EB00001068C7FA2CF8091000682FB992790F9A2
:103EC00021E0922790FB82F990FB83F9CBCF809180
:103ED0000106982F909591708E7F892B90FB81F928
:103EE0008CCF0E94991190910006892F97FB87F93A
:103EF0008058B8CF61E0AECF8091E205E6E1EE16E2
:103F0000ECE5FE0609F0D2C38A7A91E009F490E06C
:103F100090936505811106C089E20E947F0A0E9484
:103F20000F0A6CCD85E3F9CF85E3BDC380914C07C3
:103F300091E0892780934C0710921B010E94491A37
:103F40005DCD47E65AE160E77AE10E94600C56CD0C
:103F500040E75AE167E67AE1F8CF4AEB5AE163ECD1
:103F60007AE1F3CF43EC5AE16AEB7AE1EECF42EA31
:103F70005AE16EEA7AE1E9CF4EEA5AE162EA7AE181
:103F8000E4CF4AE85AE166E97AE1DFCF46E95AE14F
:103F90006AE87AE1DACF46ED5AE16CEC7AE1D5CF06
:103FA0004CEC5AE166ED7AE1D0CF81E00E94511AE3
:103FB00025CD85E0FBCF8DE0F9CF82E1F7CFE1148D
:103FC000FCE5FF0609F447C02EEDE2162CE5F206EB
:103FD00009F44EC0F801E080F180992309F44BC048
:103FE000C7010E945817D82E682FC7010E94DB0A0C
:103FF000B7018D2D0E94D9157C01882EF801D28041
:10400000A580A2943FE0A3228091DF058770A1F0F4
:10401000CD2CDD2091F08F2D807F803421F080E247
:104020008E0D883048F082E00E94BB0B8091DF0546
:104030008770CC24C3948111C12C3F2C32942FE083
:104040003222FBE0F31508F452C0E32DF0E0E85310
:10405000FA4C0C9494310E9499113FEF84E39CE058
:10406000315080409040E1F700C000000E94CA1823
:104070000E94DF19C3CCC7010E94B30AD82EB8CF63
:104080002F2D2F70A22E8F2D807F19F0A29490EFEC
:10409000A922DD20C9F0AA2069F080E28E0D8830C7
:1040A00010F081100BC08091E205A82AA092E205D1
:1040B0000E940F0A8E2D0E94EE1819C08091E10512
:1040C000A82AA092E105F4CF8E2D0E940A0CAA2006
:1040D00071F0A09480E28E0D883010F081103DC008
:1040E0008091E205A822A092E2050E940F0A232DEA
:1040F0002850330B2430310510F40E94FE0BCC20E5
:1041000009F440CC8091DF0580FD3CCCF80112829F
:104110008595859585950E94D30BC8010E94A01CAA
:104120008091DF058595859585950F900F900F906F
:104130000F900F90DF91CF911F910F91FF90EF9013
:10414000DF90CF90BF90AF909F908F907F906F90B7
:104150005F904F903F900C94980B8091E105A822BE
:10416000A092E105C2CF3F2D3F70932E8F2D807F0F
:10417000803219F0929480EF9822882071F081E0CB
:10418000881661F1DD20B9F1AA2071F1F80185816D
:1041900080FF90CF8F70858327C0DD2091F09091B4
:1041A000E305892D892BA11003C00E941C0B9FCF12
:1041B000E1E0AE12FACF981709F499CF8093E305A6
:1041C00096CFA11006C00E94090A892D0E94110BEA
:1041D0008ECFF1E0AF1609F48ACFF5CFDD2031F0B4
:1041E00025E02A1508F483CF892DDFCF34E03A1576
:1041F00008F47DCFEACFAA2041F3F9E38F1209C07A
:104200002FEF37EE83E0215030408040E1F700C0CF
:1042100000008E2D0E940A0C6ACF8F2D8695869500
:10422000837061F0813009F062CFC7019370D110C3
:1042300002C090E080E00E94260B59CFC701937026
:10424000D11002C090E080E00E943C0B50CF8F2D37
:10425000837009F066C0D1104ACF8E2D8295869565
:104260008770880F880F6E2D6F70462E512C712C21
:10427000612C082E04C0440C551C661C771C0A9443
:10428000D2F740E050E0BA01E4FE0FC04FE050E04A
:1042900060E070E004C0440F551F661F771F8A95C9
:1042A000D2F740955095609570958F2D869586959F
:1042B0008370823019F1D8F48090E4059090E50580
:1042C000A090E605B090E705813069F044295529B2
:1042D00066297729CB01BA01682179218A219B219E
:1042E0000E94F40B04CF482859286A287B28CB0168
:1042F000BA016429752986299729F2CF44295529BD
:10430000662977294090E4055090E5056090E60520
:104310007090E705CB01BA016425752586259725A0
:10432000DFCF8695DD2011F08F2D8170882309F471
:10433000DECE8E2D829586958770880F880F6E2D24
:104340006F70462E512C712C612C082E04C0440C29
:10435000551C661C771C0A94D2F740E050E0BA0165
:10436000E4FE0FC04FE050E060E070E004C0440F96
:10437000551F661F771F8A95D2F740955095609517
:1043800070958F2D869586958370823019F1D8F4BB
:104390008090510790905207A0905307B090540717
:1043A000813069F04429552966297729CB01BA0162
:1043B000682179218A219B210E94600B98CE482890
:1043C00059286A287B28CB01BA01642975298629D6
:1043D0009729F2CF4429552966297729409051071A
:1043E000509052076090530770905407CB01BA0168
:1043F0006425752586259725DFCF9F2D9F70F92E83
:10440000DD2029F0892F0E94D30B8E2DCECE8E2D4C
:104410000E94110B8F2D0E94980B69CE8E2DE2EF1A
:104420008E1609F453C0E81578F0F0EF8F1629F1D5
:1044300021EF821609F442C0DD2009F46BC0A110FF
:1044400039CE8F2D8F713FC033EF831609F443C0EF
:1044500094EF8912F1CFDD2009F451C02F2D2F7177
:10446000F22E822F0E94D30B38E0F39EC00111245C
:1044700083608093DF058F2D26C0DD20D1F0E4E03E
:10448000EA1508F434CE2F2D2F7161E070E080E042
:1044900090E004C0660F771F881F991F2A95D2F7F6
:1044A0004090510750905207609053077090540706
:1044B0009FCFF5E0FA1508F41ACEE5CF8F2D8F7156
:1044C000DD2009F4A8CF0E94D30B11CE8F2D8F7160
:1044D000DD20C9F3A0CF60E070E0CB01DD2009F45E
:1044E0006BCF2F2D2F7161E070E080E090E004C071
:1044F000660F771F881F991F2A95D2F75DCF81E03D
:104500000E94BB0B81E08A1508F0F1CD82E00E9489
:10451000BB0BEDCDAA2059F0893309F07ACE9FEF7D
:10452000E7EEF3E09150E040F040E1F770CE8F2DE0
:104530008F7171CFF0E1EF16FFE5FF0609F457CB5D
:1045400021E1E2162FE5F20609F45BCB40E2D42E1E
:104550008CE3E816F10420F4F701EB53FE4FD08012
:104560001F92DF92FF92EF92F80180811F928F934A
:1045700081811F928F938FE191E09F938F931F9280
:1045800088E18F9389E495E09F938F930E945A323C
:104590000FB6F894DEBF0FBECDBF80914705909156
:1045A0004805449709F42FCB809147059091480521
:1045B000FC01E25BF94FD08201969093480580930D
:1045C000470580916305909164050E94EE09D82EFD
:1045D000C92E80936105909362050E94301C8093E0
:1045E000630590936405CF92DF929F938F9380E34E
:1045F00091E09F938F931F9288E18F9383E696E0DB
:104600009F938F930E945A320FB6F894DEBF0FBE6D
:10461000CDBF93EFE9169CE5F90609F469CB08F0E4
:1046200000CBF8EDEF16FCE5FF0609F45DCB29EDB4
:10463000E2162CE5F20609F467CB37EDE3163CE50C
:10464000F30609F0FFCA26E241EE61EEC8010E94BE
:104650003C1CD4C930E1E3163FE5F30609F4CDCAAA
:1046600081E1E8168FE5F806A1F682E0C7CA85E089
:10467000DE01119601900D928A95E1F7F8012281F1
:1046800089819A81211195C90E94B30AF82E99C98E
:10469000F6E1EF16FCE5FF0609F09CCC809165057C
:1046A000811142CC89E20E94540A39CC8272F7010E
:1046B000E25CFC45E431F10508F081CCEC52FA4CA7
:1046C0000C9494311F93CF93DF9380916B05807F7F
:1046D000A9F480916805882389F080919D05D09187
:1046E0006C056091660570916705A0916905B091B0
:1046F0006A05C62FC72316E0D81304C0DF91CF91F7
:104700001F91089590E0109711F0CF3F19F4019692
:104710008770F2CF189F9001199F300D1124F90175
:10472000E359FA4F41814713F2CF40814613EFCF4F
:1047300042814111ECCF438154814A1B5B0B483CC1
:10474000510528F780916B058F70806180936B0510
:10475000F901EE58FA4F80818F708061808386E680
:1047600095E00E94A01CDF91CF911F910C94070B44
:10477000AF92BF92CF92DF92EF92FF920F931F936F
:10478000CF93DF93CDB7DEB761970FB6F894DEBF56
:104790000FBECDBF8C0185E0F801DE011D960190B2
:1047A0000D928A95E1F7F80180819181E28026E6F9
:1047B000A22E25E0B22E6091690570916A056115FF
:1047C000710509F43EC13091660540916705232FBC
:1047D00024232F3F09F435C1C380D480F0906805AD
:1047E000F601E61BF70BFF2009F4FBC020916B05D7
:1047F000522F507FE83CF10508F0BBC0511178C042
:10480000FE2C491321C038131FC0E1101DC02F70AA
:10481000206120936B05C5010E94A01C80916B054F
:10482000F80185838F2D61960FB6F894DEBF0FBE19
:10483000CDBFDF91CF911F910F91FF90EF90DF904F
:10484000CF90BF90AF900895CD2829F0282F29232D
:104850002F3F09F014C120E0F22FF170DF2E20FF6E
:104860003DC020919D0540916C0556E0241315C074
:104870008D879E878D859E850E949A17292F229568
:104880002F702230F8F0243020F59F70F9F0F801F5
:104890009581907FD9F4D12C1FC030E0529FF00158
:1048A000539FF00D1124E359FA4F6181961306C00E
:1048B0006081861303C06281E61210C02F5F3F4FF4
:1048C0002770D4CF9F7011F0882329F3805E883041
:1048D00010F3C8010E94A01CFD2CA4CFEE2009F407
:1048E000A1CF80916B05816080936B05F12C9ACFED
:1048F000491312C0381310C0E1100EC0F80125830F
:10490000C8010E94A01C86E0F801A6E6B5E001906F
:104910000D928A95E1F786CF8D879E878D859E853E
:104920000E94A417882309F1EE20F9F080916B050D
:10493000803270F0209166053091670538872F83AB
:104940001986DB86CA868C87CE0107960E94A01C3A
:1049500086E0F801A6E6B5E001900D928A95E1F7B0
:104960000E946223FF24F3945DCFC8010E94A01C23
:10497000F9CF51110AC086E695E00E94A01C86E09E
:10498000F50111928A95E9F7B1CF49130FC0381399
:104990000DC0E1100BC0F8012583C8010E94A01CC6
:1049A00086E0F50111928A95E9F73CCF8D879E87C5
:1049B0008D859E850E94A4178823B9F2EE20A9F266
:1049C00080916B05803220F2209166053091670559
:1049D0003A8329831B82DD82CC828E83CE010196AD
:1049E000B5CFE83CF105E0F6FE2CEE2009F4BDCF92
:1049F000491316C0381314C080916B0580FD83CF16
:104A0000982F907F09F47FCFF8018583903F09F4B8
:104A100077CF982F907F905F8F70892B858370CF91
:104A20008D879E878D859E850E94A417811190CFCA
:104A300080916B05816080936B05C8010E94A01C6A
:104A4000F1CEEE2009F491CF8D879E878D859E85CE
:104A50000E94A417F82E882309F487CF86E0F80176
:104A6000A6E6B5E001900D928A95E1F78091660582
:104A7000909167050E949A170E946223D3CE21E08D
:104A80002E25EACE1F93CF93DF93CDB7DEB767977E
:104A90000FB6F894DEBF0FBECDBF342F4B8B252F42
:104AA0005C8B6D8B7E8B8F8B8E899F8961111092B1
:104AB000E1051A8A198A3D872E876F87998B888B23
:104AC00086E0FE013D96DE01179601900D928A95D3
:104AD000E1F7CE0107960E94B823882389F016E0FB
:104AE00080919D0590916C05891349C067960FB61A
:104AF000F894DEBF0FBECDBFDF91CF911F91089517
:104B000086E0FE013796DE01119601900D928A959E
:104B1000E1F78A859B85892B11F38F8198858923FD
:104B20008F3FE9F220916C0530E0C9010196877052
:104B3000992740919D054817190671F40E94991113
:104B400010926C0510929D0586E0E6E6F5E0DF0127
:104B50001D928A95E9F7C3CF96E0929FD001939F6B
:104B6000B00D1124A359BA4FFE01319601900D9258
:104B70009A95E1F780936C050E94070BB0CF819F57
:104B8000C001112483599A4F0E94B823882309F445
:104B9000ADCF80919D0590E0019687709927809315
:104BA0009D059ECF2F923F924F925F926F927F9280
:104BB0008F929F92AF92BF92CF92DF92EF92FF922D
:104BC0000F931F93CF93DF9382E3E82E82E0F82EBA
:104BD00008EE15E0E801212C312CCC24C394D12C13
:104BE000812C912C54018394D7018D917D01F894EF
:104BF000E82FE295EF70F0E021A18F70A60102C0CE
:104C0000440F551F8A95E2F7CA01922F982B91A362
:104C100092A18095892382A3789400C0E8E3F2E012
:104C200030E020E0412C512C32018191A82FA29537
:104C3000AF70B0E090964C9150E08F7002C05595E7
:104C400047958A95E2F780E090E0DC0140FD0AC0DC
:104C5000D501C401022E04C0880F991FAA1FBB1FD3
:104C60000A94D2F7482A592A6A2A7B2A2F5F3F4F93
:104C700021313105D1F6F701319780810E943F1132
:104C800055E0251619F080EA8A95F1F78881998117
:104C9000AA81BB81481659066A067B0691F14882B3
:104CA00059826A827B8281E0382A23942496A6E086
:104CB0002A129ACF332039F181E0809316040E94A2
:104CC000301C9093150480931404809114049091E7
:104CD00015040E94EE090697D0F0E5EDF6E080E0BD
:104CE00096E0D8014D915D916D917D918D0141933B
:104CF0005193619371938A179B0799F71092160449
:104D000006C080E0D1CF809116048111DECF832DC3
:104D1000DF91CF911F910F91FF90EF90DF90CF9097
:104D2000BF90AF909F908F907F906F905F904F90CB
:104D30003F902F900895CDB7DEB7AE970FB6F89499
:104D4000DEBF0FBECDBF84B7877F84BF0FB6F89498
:104D5000A895809160008861809360001092600047
:104D60000FBE80E890E00FB6F894809361009093B6
:104D700061000FBE85B7806885BF85B7806885BF35
:104D800088EE99E09093F3038093F2030E946C06FF
:104D90000E9437078091E20084608093E20078945B
:104DA000809112078823A1F01091E9001F70909163
:104DB000EC00892F817090FD80E8182B1092E9009B
:104DC0008091E80083FD0E94AE111F701093E900EE
:104DD00082E084BD93E095BD9AEF97BD80936E000D
:104DE00080E30E943F1181E30E943F1182E30E9411
:104DF0003F1183E30E943F1187E30E943F1185E941
:104E00000E943F1108E312E039E4C32E32E0D32EB2
:104E1000D8018D918D010E943F11C016D106C1F7B6
:104E2000E8EEF5E080E096E0A5EDB6E01192119293
:104E3000119211921D921D921D921D928E179F0725
:104E4000A9F70E94D225BFEFE6E7F1E0B150E040BC
:104E5000F040E1F700C000000E94D2258091D50605
:104E600080FF17C06FEF82E290E00E9427356FEF5E
:104E700083E290E00E9427356FEF84E290E00E9489
:104E800027356FEF7FEF90E080E00E9445350E946C
:104E9000CA1890E080E00E9411358B3E9E4F11F0C1
:104EA0000E94DF1910921C078FEF9FEF9093360737
:104EB00080933507909338078093370790933A078C
:104EC0008093390790933C0780933B0790933E076C
:104ED00080933D079093400780933F07909342074C
:104EE00080934107909344078093430710920506EF
:104EF00090931F0680931E069093210680932006B0
:104F0000909323068093220690932506809324068F
:104F1000909327068093260690932906809328066F
:104F200090932B0680932A0690932D0680932C064F
:104F300090E080E00E9411358B3E9E4F21F00E9450
:104F4000DF190E94E01A45E050E06CE170E08CE46B
:104F500097E00E94F93480914C078C7F11F40E94F5
:104F6000E01A82E290E00E940935813211F00C943F
:104F70002D3083E290E00E940935883011F00C94C6
:104F80002D3084E290E00E940935853211F00C94B6
:104F90002D301092B30680E8809355070E94773039
:104FA0006DE070E080E796E00E944015892BE9F5FE
:104FB0008091B30663E070E081FD2DC18DE696E03F
:104FC0000E944015892B89F56DE070E08DE596E033
:104FD0000E944015892B49F50E94FD096054784DC7
:104FE000864F9F4F6093B5067093B6068093B706C1
:104FF0009093B806E8E5F7E080E092E0DF018C01ED
:105000001D9201501040E1F7F0935F09E0935E09B3
:105010008FEF9FEF909357078093560781E080931F
:10502000BA068093B9061092B40690E080E00E9420
:1050300011358B3E9E4F11F00E94DF1982E090E007
:105040000E9409358093BC060E9498159093010632
:105050008093000683E090E00E940935682F70E09D
:1050600090E080E00E94F40B60910006606860931D
:1050700000061091010684E090E00E942735612F20
:1050800081E290E00E9427358DE091E09093030645
:105090008093020620E4F22E8091120700E112E1D3
:1050A000853009F4F8C00E94D225D82E81110E94C3
:1050B000FD09EDEBF6E025ED36E010E000E0302EE6
:1050C000D9014D915D916D917D919D0141905190DE
:1050D00061907190441655066606770609F4E2C1A0
:1050E0004426552666267726C12C812C912C540106
:1050F0008394D301C20188219921AA21BB21892B44
:105100008A2B8B2B09F4C6C1C9A23AA22A013B0102
:10511000482059206A207B2081E041145104610419
:10512000710409F480E08BA30E94301C8160782F09
:105130009DA38CA349A15AA16BA18DA10E944225D8
:10514000F801EE0FFF1FEE0FFF1FE354F94F8081B0
:105150009181A281B38188259925AA25BB258083C9
:105160009183A283B38345284628472871F481E1BF
:10517000809FF001819FF00D1124E05AFD4FEC0D4E
:10518000F11D80818F3F09F090C0C12C90900506E1
:105190000C2D10E0C801890D911D099764F1F8E00C
:1051A000AF2EB12CA01AB10AB8016A5F794FA501E0
:1051B00086E096E00E944A32B801625F794FA5010D
:1051C0008EE096E00E944A32A501440F551FB801B7
:1051D000660F771F625E794F8EE196E00E944A3239
:1051E000B8016A5E794FA50186E196E00E944A32D5
:1051F0009A94909205068091050690E0AE2DB0E05D
:105200009D01220F331F2A533D4FAA0FBB1FBD0123
:1052100069537D4F62C08AE696E0D2CE8091120734
:10522000843019F11092040628E130E00FB6F894AA
:10523000A895209360000FBEF092600083B7817F35
:10524000846083BF83B7816083BF7894889583B778
:105250008E7F83BF0FB6F894A89580916000886117
:1052600080936000109260000FBE80911107882328
:1052700091F00E94D225E5EDF6E081919191A19106
:10528000B191892B8A2B8B2B09F0D1C68DEE96E03C
:105290008E179F0791F780911207853009F4BECFD2
:1052A0000E9499110E94FE0BFECEE82ECC24C394DE
:1052B0006DCF90E0FC01EB5FF94FD9015C91518318
:1052C000DB015C915187E18A880F991FFC01EB5F3C
:1052D000F94F128E118E91E0842F41E0480F9C15FA
:1052E00040F38093050680902E0690902F06A090A4
:1052F0003006B09031068FB7F89440903206509047
:10530000330660903406709035068FBF930182019A
:10531000081919092A093B090BA71CA72DA73EA7A5
:105320000E94FD0960932E0670932F06809330062D
:1053300090933106A0910506E5E0F6E02A2F30E0D3
:105340001FEF810E911EA11CB11C84189508A608A0
:10535000B708A313BEC02093050630914C07132F46
:105360001370C12E19F0C32EC694C69420911B0150
:10537000213009F4DAC0222309F4C0C0223009F434
:1053800096C3233009F49DC38091BA06882309F49B
:105390000CC488E597E090935F0980935E090E94B2
:1053A000FE0BF6E4AF2EF1E0BF2E82FF04C0EFE368
:1053B000AE2EE1E0BE2E0E94FE0B06E411E080FF5F
:1053C00002C00DE411E00E94FE0B81FD99C386E44A
:1053D00091E0BF92AF921F930F939F938F938BE5B2
:1053E00091E09F938F931F9288E18F9386E396E0DD
:1053F0009F938F930E945A3286E396E00E9428156D
:1054000081E00E94F6148EE496E00E94281581E067
:105410000E94F61483E696E00E94281581E00E941F
:10542000F6148091510790915207A0915307B091C3
:1054300054070FB6F894DEBF0FBECDBF8430910580
:10544000A105B10509F4E7C308F05DC30097A10504
:10545000B10509F466C368E871E082309105A105E1
:10546000B10509F460C3BF93AF939F938F938CEA08
:1054700091E09F938F931F9288E18F938BE796E043
:105480009F938F930E945A320FB6F894DEBF0FBEDF
:10549000CDBF4DC3C394880C991CAA1CBB1CB1E1A1
:1054A000CB1227CE0F5F1F4F0630110509F007CE34
:1054B0008FEF8EA38FA318A60E94301C8160782FD7
:1054C0009AA789A74EA15FA168A58AA50E94422537
:1054D0000ACF418D528D2A01712C612C84149504C0
:1054E000A604B70420F421503F5F329632CF0BA5BB
:1054F0001CA5400F511F528F418FF6CF10921801FB
:105500006093450770934607809347079093480739
:1055100089E2E5E0F6E0ACE1B7E001900D928A9512
:10552000E1F781E080931B012FCF9091050111E0FD
:10553000C9120AC0832F83702091040130E011E06A
:105540008217130609F410E0117010931A0126E275
:105550002C1540F0EC2DF0E0E851FA4C0C9494310D
:10556000111102C010E069C040E060E080E00E94DC
:105570007B0CF8CF0091180184E1089F002D1124C5
:1055800014E1B12EB00EAB2C34E63B1510F4B4E6AA
:10559000AB2E60914D0770914E0780914F070E948E
:1055A000EF0D962E872E782E10E00A1530F011E0C0
:1055B00043E64B1508F041C0D5CFF801E257FC4F48
:1055C000808190911901892331F0272D492D682D73
:1055D000C8010E947D0C0F5F1F4FE7CF009118019B
:1055E00084E1089F002D1124A4E1BA2EB00EAB2C4B
:1055F00084E68B1510F4F4E6AF2E50904E076090C1
:105600004F0710914D07612F752D862D0E94EF0DCC
:10561000962E872E782E60915007610F752D862D5E
:105620000E94EF0D662E572E482E10E00A1568F1E5
:1056300011E093E69B1508F495CF809118018F5FD8
:105640008093180111112FC282E080931B01809179
:105650001A01811128C2CC2009F431C20E94FE0B2C
:1056600081FF07C02FEF4FEF6FEF89E190E00E94BD
:105670007D0C0E94FE0B82FF87CE2FEF4FEF6FEF66
:1056800089E490E00E947D0C7FCEF801E257FC4F48
:10569000908180911901892359F0242D462D652D83
:1056A00090FD03C0272D492D682DC8010E947D0C57
:1056B0000F5F1F4FBBCF0091180184E1089F002DA1
:1056C0001124E4E1BE2EB00E9B2CA4E6AB1510F421
:1056D00074E6972E80904E0770904F0720915007E8
:1056E0001F2D129F112D1124A12E10E0091530F04D
:1056F00011E023E62B1508F0A0CF34CFF801E257D4
:10570000FC4F8081909119018923B9F0F801EE0FC7
:10571000FF1FE953FD4F808182958F7060914D0787
:105720008A9D600D1124782D872D0E94EF0D462F44
:10573000282F672FC8010E947D0C0F5F1F4FD6CF07
:105740000091180184E1089F002D112454E1B52E29
:10575000B00E9B2C34E63B1510F444E6942E80905A
:105760004E0770904F07209150074F2D429F412DBB
:105770001124A42E10E0091530F011E083E68B15FA
:1057800008F05BCFEFCEF801E257FC4F808190919B
:1057900019018923D9F0F801EE0FFF1FEA53FD4FDD
:1057A0006081A69EB001112435E0759567953A9504
:1057B000E1F780914D07680F782D872D0E94EF0D3E
:1057C000462F282F672FC8010E947D0C0F5F1F4FA7
:1057D000D2CF0091180184E1089F002D112494E19B
:1057E000B92EB00EAB2C94E69B1510F484E6A82ECF
:1057F00090904D0710914E0780904F076091500791
:1058000066956695669580914507909146070E943A
:10581000E50D0E944B0D805887FD8195880F282F3C
:10582000382D239F212D1124822F692D712F0E9445
:10583000EF0D962E872E782E10E00A1508F0B7CEC1
:10584000F801E257FC4F808190911901892331F0D2
:10585000272D492D682DC8010E947D0C0F5F1F4F19
:10586000ECCF8FEB99E00E945C0F07C085E999E0CF
:10587000FACF8DE29DE00E94000F182FDECE8EE061
:105880009DE0F9CF83EF9CE00E94830EF6CF87ED79
:105890009CE0FACF83E999E0E6CF8AE899E0E3CF8C
:1058A00081E899E0E0CF88E699E0DDCF8AE599E0EC
:1058B000EBCF8DEB9DE0DFCF86EC9CE0DCCF82EB85
:1058C0009CE0E2CF8DE299E00E94A60FD6CF8FEF49
:1058D00098E0FACF88EC98E0F7CF11111EC06091E4
:1058E000500720E1620F08F46FEF80914507909117
:1058F00046070E94E50D65E070E00E946C31892B3F
:1059000009F030CE0E94243264E670E00E948031BB
:10591000609119010E942E1890CE0091180184E127
:10592000089F002D112414E1912E900E892D94E6EC
:10593000991508F484E610E0A82EB12C0A151B0571
:1059400034F011E0A3E6A91508F077CE0BCE6091F4
:105950001901C8010E942E180F5F1F4FEFCF009151
:10596000180184E1089F002D1124B4E1BB2EB00E74
:10597000AB2CB4E6BB1510F4A4E6AA2E80904E071B
:1059800090904F0710914D0760915007669566956E
:10599000669580914507909146070E94E50D0E940B
:1059A0004B0D805887FD8195880F682F2CE0629FF2
:1059B000612D1124610F782D892D0E94EF0D962EF7
:1059C000872E782E10E00A1530F011E0E3E6EB1593
:1059D00008F033CEC7CDF801E257FC4F808190919B
:1059E0001901892331F0272D492D682DC8010E9406
:1059F0007D0C0F5F1F4FE7CF8AE69DE034CF87EB2A
:105A000098E031CF80EB98E00E94081036CF8AEA08
:105A100098E0FACF80911C0721E0082F021B08F4C0
:105A200000E0802F61E978E00E94791026CF61E9DB
:105A300078E080E0F9CF80911C0721E0182F121B3D
:105A400008F410E0812F66E578E0EECF66E578E0B7
:105A5000F0CF80911C0721E0382F321B08F430E092
:105A6000832F64E278E0E0CF64E278E0E2CF8091D7
:105A70001C0721E0482F421B08F440E0842F6CE013
:105A800078E0D2CF6CE078E0D4CF80911C0721E0A1
:105A9000082F021B08F400E0802F66EF77E0C4CFE8
:105AA00066EF77E0C6CFCC2009F46ECCD7CDC0929C
:105AB0000501832F8370809304010E94B81983E04D
:105AC00031CD40914507509146076091470770914D
:105AD00048072FB7F8948091320690913306A09131
